:1033940057494649004150004F4B004F4C454400AB
:1033A4003E005541525400535443313546324B3656
:1033B4003053322055415254322054657374205096
:1033C400726772616D6D65210D0A0054696D6572D5
:0C33D4000054757961003A002E002500BD
:0F3B6F00123B9A7F0A7E00123A62E4FF023B018A
:101C2B00123C077E00EE6003021D70EFB40700400C
:101C3B0003021D70901C46F8282873021C5B021CC3
:101C4B0091021CBE021CFD021D3B021D4D021D9D7F
:101C5B007B09E4FD7F11122D937B0AE4FD7F231298
:101C6B002D937B0BE4FD7F36122D937BFF7A33791B
:101C7B009478FD7410F2E4FD7F4A1231F67B14E484
:101C8B00FD7F6E021D9A7BFF7A33799978FD741074
:101C9B00F2E4FD7F111231F67B0AE4FD7F36122D43
:101CAB00937B0BE4FD7F4A122D937B14E4FD7F5F46
:101CBB00021D9A7B09E4FD7F11122D937B0FE4FD2E
:101CCB007F23122D937B10E4FD7F36122D937B0C1B
:101CDB00E4FD7F4A122D937B0DE4FD7F5F122D9364
:101CEB007B0EE4FD7F75122D937B14E4FD7F8C023C
:101CFB001D9A7B09E4FD7F11122D937B0FE4FD7F71
:101D0B0023122D937B10E4FD7F36122D937B11E470
:101D1B00FD7F4A122D937B12E4FD7F5F122D937B87
:101D2B0013E4FD7F75122D937B14E4FD7F8C805F94
:101D3B007BFF7A33799C78FD740CF2E4FD7F110202
:101D4B0031F67B09E4FD7F11122D937B15E4FD7FAA
:101D5B0023122D937B16E4FD7F36122D937B14E417
:101D6B00FD7F4A802A7B17E4FD7F11122D937B1890
:101D7B00E4FD7F23122D937B19E4FD7F36122D9307
:101D8B007B1AE4FD7F4A122D937B14E4FD7F5F12D7
:021D9B002D9386
:011D9D002223
:03000B0002398433
:10398400C0E0C0D075D000C000C2CD7809E22401E7
:10399400F218E23400F2D2CDC2CDD000D0D0D0E0C3
:0139A40032F0
:10181D00E4F593F594F591F592F595F596F5B1F509
:10182D00B2F5B3F5B4F5C9F5CAF5CBF5CCF5E1F5DF
:10183D00E212286D12391C7BFF7A33799F78FD7483
:10184D000CF2E4FDFF1231F67FFF7E00123A627B4F
:10185D00FF7A3379A478FD740CF2E4FD7F21123107
:10186D00F67FFF7E00123A627BFF7A3379A478FD12
:10187D00740CF2E4FD7F291231F67FFF7E00123ADF
:10188D00627BFF7A3379A478FD740CF2E4FD7F312D
:10189D001231F67FFF7E00123A627BFF7A3379A414
:1018AD0078FD740CF2E4FD7F391231F67FFF7E0076
:1018BD00123A627BFF7A33799C78FD740CF2E4FD69
:1018CD007F431231F67FFF7E00123A627F0212399A
:1018DD0040D2AF7BFF7A3379A678FD740CF27D018F
:1018ED00E4FF1231F67FFF7E00123A627BFF7A33FE
:1018FD0079A478FD740CF27D017F211231F67FFF02
:10190D007E00123A627BFF7A3379A478FD740CF273
:10191D007D017F291231F67FFF7E00123A627BFF37
:10192D007A3379A478FD740CF27D017F311231F692
:10193D007FFF7E00123A627BFF7A3379A478FD74C3
:10194D000CF27D017F391231F67FFF7E00123A6273
:10195D007BFF7A33799C78FD740CF27D017F431205
:10196D0031F67FFF7E00123A627BFF7A3379AB123C
:10197D003AEB1239FF7BFF7A3379CF78FD740CF295
:10198D007D03E4FF1231F67FFF7E00123A627BFF8A
:10199D007A3379A478FD740CF27D037F2D1231F624
:1019AD007FFF7E00123A627BFF7A3379A478FD7453
:1019BD000CF27D037F351231F67FFF7E00123A6205
:1019CD007BFF7A3379A478FD740CF27D037F3D1291
:1019DD0031F67FFF7E00123A627BFF7A3379A4786D
:1019ED00FD740CF27D037F451231F67FFF7E0012F0
:1019FD003A627BFF7A33799C78FD740CF27D037F1C
:101A0D004F1231F67FFF7E00123A621238D47BFFFF
:101A1D007A3379D578FD740CF27D04E4FF1231F63A
:101A2D007FFF7E00123A627BFF7A3379A478FD74D2
:101A3D000CF27D047F211231F67FFF7E00123A6297
:101A4D007BFF7A3379A478FD740CF27D047F291223
:101A5D0031F67FFF7E00123A627BFF7A3379A478EC
:101A6D00FD740CF27D047F311231F67FFF7E001282
:101A7D003A627BFF7A3379A478FD740CF27D047F92
:101A8D00391231F67FFF7E00123A627BFF7A33798D
:101A9D009C78FD740CF27D047F431231F67FE87E55
:071AAD0003123A6202391C2A
:101D9E00789074FEF2087400F2087402F27BFE7AF8
:101DAE0000790012204E7800E2FF08E27804CFF2AC
:101DBE0008EFF27802E2FF08E27806CFF208EFF2BF
:101DCE00E4FB7D02FF122D937B017D027F11122D0C
:101DDE00937BFF7A3379DA78FD7410F27D027F23DC
:101DEE001231F67804E2FE08E2FF7C007D0A121240
:101DFE0035AA06AB0778F37402F2087410F27D026E
:101E0E007F36122A107BFF7A3379DC78FD7410F25C
:101E1E007D027F4A1231F67804E2FE08E2FF7C0072
:101E2E007D0A121235AA04AB0578F37401F2087418
:101E3E0010F27D027F53122A107B027D04E4FF1202
:101E4E002D937B017D047F11122D937BFF7A3379C5
:101E5E00DA78FD7410F27D047F231231F67806E2F3
:101E6E00FE08E2FF7C007D0A121235AA06AB077847
:101E7E00F37402F2087410F27D047F36122A107B7E
:101E8E00FF7A3379DC78FD7410F27D047F4A1231CB
:101E9E00F67806E2FE08E2FF7C007D0A121235AAF1
:101EAE0004AB0578F37401F2087410F27D047F53CD
:101EBE00122A107BFF7A3379DE78FD7410F27D04DE
:101ECE007F641231F67804E2FE08E2FFEE3395E00D
:101EDE00FDFC78561213F47F01122AB97806E2FE41
:101EEE0008E2FF7C007D0A121235EE3395E0FDFC10
:0A1EFE0078561213F47F02022AB98D
:043C11001232F52254
:103B2D00E478A3F208F27BFF7A3379AB123AEB809B
:013B3D00F592
:0300230002004296
:01004200328B
:0300430002334540
:10334500C0E0C0F0C083C082C0D075D000C000C04E
:1033550001C002C003C004C005C006C007E59A301D
:10336500E008539AFEAF9B122B5AE59A30E10553BC
:103375009AFDC201D007D006D005D004D003D002F3
:0F338500D001D000D0D0D082D083D0F0D0E032B1
:103AD5001211546010F599D2002000FD740129F9E6
:063AE500E43AFA80EB2236
:1036EF00780AEBF208EAF208E9F2780AE2FB08E25C
:1036FF00FA08E2F9121154FF601012352A780CE221
:0A370F002401F218E23400F280E019
:01371900228D
:10143F00780DEEF208EFF2C3EE6480948050030251
:10144F00162418E2FE08E2FFEE3395E0FDFC7BA0C8
:10145F007A8679017800D31213A7500302162478E5
:10146F000DE2FE08E2FF940AEE64809480500312AE
:10147F003526780DE2FE08E2FFC3940AEE648094ED
:10148F0080401FEF9464EE6480948050157C007D43
:10149F0064123523780DE2FE08E2FF7C007D6412B2
:1014AF003516780DE2FE08E2FFC39464EE64809473
:1014BF00804041EF94E8EE6480948350377C007D48
:1014CF0064123523780DE2FE08E2FF7C007D641282
:1014DF003516780DE2FE08E2FF7C007D64121235AE
:1014EF007E007F0ACFCDCFCECCCE121235ED243079
:1014FF00FF12352A780DE2FE08E2FFC394E8EE648E
:10150F008094834061EF9410EE648094A750577CD1
:10151F00037DE8123523780DE2FE08E2FF7C037DA0
:10152F00E81212357F6412351B780DE2FE08E2FFD8
:10153F007C037DE8123509780DE2FE08E2FF7C039B
:10154F007DE81212357E007F64CFCDCFCECCCE1288
:10155F0012357E007F0ACFCDCFCECCCE121235ED15
:10156F002430FF12352A780DE2FE08E2FFC39410F3
:10157F00EE648094A75003021624EE3395E0FDFC31
:10158F007BA07A8679017800D31213A75003021635
:10159F0024780DE2FE08E2FF7C277D1012352378B8
:1015AF000DE2FE08E2FF7C277D101212357E037FCD
:1015BF00E812351D780DE2FE08E2FF7C277D101240
:1015CF0012357E037FE8CFCDCFCECCCE1212357E33
:1015DF00007F6412351D1234F1780DE2FE08E2FF30
:1015EF007C277D101212357E037FE8CFCDCFCECC76
:1015FF00CE1212357E007F64CFCDCFCECCCE12125D
:10160F00357E007F0ACFCDCFCECCCE121235ED2452
:10161F0030FF12352A780DE2FE08E2FFC3EE648038
:10162F009480400302181CC3E49FFFE49E18F20845
:10163F00EFF27F2D12352A780DE2FE08E2FFEE332E
:10164F0095E0FDFC7BA07A8679017800D31213A771
:10165F00500302181C780DE2FE08E2FF940AEE64B4
:10166F008094805003123526780DE2FE08E2FFC306
:10167F00940AEE64809480401FEF9464EE6480942B
:10168F008050157C007D64123523780DE2FE08E250
:10169F00FF7C007D64123516780DE2FE08E2FFC371
:1016AF009464EE648094804041EF94E8EE648094FB
:1016BF008350377C007D64123523780DE2FE08E2FB
:1016CF00FF7C007D64123516780DE2FE08E2FF7C88
:1016DF00007D641212357E007F0ACFCDCFCECCCEE7
:1016EF00121235ED2430FF12352A780DE2FE08E292
:1016FF00FFC394E8EE648094834063EF9410EE642C
:10170F008094A750597C037DE8123523780DE2FEB3
:10171F0008E2FF7C037DE81212357E007F641235EC
:10172F001D780DE2FE08E2FF7C037DE81235097893
:10173F000DE2FE08E2FF7C037DE81212357E007F8A
:10174F0064CFCDCFCECCCE1212357E007F0ACFCD57
:10175F00CFCECCCE121235ED2430FF12352A780DB4
:10176F00E2FE08E2FFC39410EE648094A7500302D8
:10177F00181CEE3395E0FDFC7BA07A86790178008A
:10178F00D31213A7500302181C780DE2FE08E2FFD4
:10179F007C277D10123523780DE2FE08E2FF7C27AF
:1017AF007D101212357E037FE812351D780DE2FE93
:1017BF0008E2FF7C277D101212357E037FE8CFCD24
:1017CF00CFCECCCE1212357E007F6412351D12346F
:1017DF00F1780DE2FE08E2FF7C277D101212357EB4
:1017EF00037FE8CFCDCFCECCCE1212357E007F64F3
:1017FF00CFCDCFCECCCE1212357E007F0ACFCDCF3C
:0E180F00CECCCE121235ED2430FF12352A2237
:1034F100780DE2FE08E2FF7C277D101212357E0373
:103501007FE8CFCDCFCECCCE1212357E007F64CFF7
:10351100CDCFCECCCE1212357F0A7E00CFCDCFCE0D
:09352100CCCE121235EF2430FF6C
:08352A008F99D2002000FD2260
:080003008F9BD2012001FD22B8
:103AEB001211546010F59BD2012001FD740129F9CC
:063AFB00E43AFA80EB2220
:1039E400AD07AC06538EEF538EF7438E04ECF5D639
:0B39F400AF058FD753AFFB438E1022AE
:10346A00EFB4020C438E017FD07EFF1239E4801B39
:10347A00C28E538EFE438E405389BF5389CF758DBA
:10348A00FF758BD0C2AB538FFDD28EE598543F4463
:10349A0040F598D2ACD29C53A23FC200E47811F214
:0434AA00780FF22283
:10394000EF6402701C7FD07EFF1239E4539A7F43EC
:10395000AF01439A1053BAFEC201E47812F2781014
:02396000F22251
:103A62007D527C03ED1D70011C144C70F7EF1F702A
:063A7200011E144E70EA73
:013A7800222B
:103A79007D037C00ED1D70011C144C70F7EF1F7065
:063A8900011E144E70EA5C
:013A8F002214
:1039FF00C28CD2A95389FC5389FB538FFE438E800F
:093A0F00758CD4758ACDD28C228D
:103A1800C28ED2AB5389CF5389BF538FFD438E409B
:093A2800758DD4758BCDD28E2270
:1032F500E47813F2D2CCD2C7D292D293D294D2959B
:103305007F0AFE123A7920CC057813E204F220C731
:10331500067813E22402F22092067813E22404F2DE
:103325002093067813E22408F22094067813E22409
:0F33350010F22095067813E22420F27813E2FFBD
:013344002266
:04396200827100006E
:102E1500EFC39430400CEFD39439500674D02FFF94
:102E25008022EFC39441400CEFD394465006EF2423
:102E3500C9FF8010EFC39461400AEFD39466500434
:102E4500EF24A9FFEF540FC454F0FFEDC3943040B5
:102E55000CEDD39439500674D02DFD801EEDC3942E
:102E6500414008EDD394465002800CEDC394614077
:102E75000AEDD394665004ED24A9FDED540F4FFFE0
:012E8500222A
:0A2E86007814EBF208EAF208E9F212
:102E900008121400000000007814E2FB08E2FA08AF
:102EA000E24A4B7005FFFEFDFC2278171214000069
:102EB0000000007814E2FB0808E2F92401F218E2AD
:102EC000FA3400F2121154601F7817E2FC08E2FD98
:102ED00008E2FE08E22401FFE43EFEE43DFDE43C9E
:102EE000FC78171213F480CB7817E2FC08E2FD0897
:052EF000E2FE08E2FF14
:012EF50022BA
:0A30ED00781BEBF208EAF208E9F2A2
:1030F7007821EBF208EAF208E9F2781BE2FB08E232
:10310700FA08E24A4B7004FBFAF922781F08E2FF3B
:1031170024FFF218E2FE34FFF2EF4E60177821E247
:10312700FB0808E2F92401F218E2FA3400F2ED1282
:0E313700119A80D7781BE2FB08E2FA08E2F951
:013145002267
:0A1F08007824EBF208EAF208E9F28F
:101F1200782CEBF208EAF208E9F27827E2F908E213
:101F2200FA08E2782FC9F208EAF208E9F27824E224
:101F3200FB08E2FA08E24A4B600C08E2FB08E2FA0C
:101F420008E24A4B70077B007A00790022782FE280
:101F5200FB08E2FA08E2F9C0038A838982782C0836
:101F6200E2FA08E2F9D3D0E0E99582EA9583402EBD
:101F720008E2FB08E2FA08E2F9782AE2FE08E2FF48
:101F8200E92FF9EA3EFAC0038A8389820808E2FA55
:101F920008E2F9D3D0E0E99582EA9583404EE478ED
:101FA20032F208F2782AE2FE08E2FF7832E2FC0816
:101FB200E2FDC39FEC9E4003022043782FE2FB0820
:101FC200E2FA08E2F98D828C8312116DFF782CE21D
:101FD200FB08E2FA08E2F98D828C83EF1211AC78E9
:101FE20033E22401F218E23400F280B8782AE2FFE8
:101FF20008E27832CFF208EFF27832E2FE08E2FF2E
:10200200D39400EE94004039782FE2FB08E2FA08FC
:10201200E2F9EF24FFFFEE34FFFE8F82F583121107
:102022006DFD782CE2FB08E2FA08E2F98F828E83DA
:10203200ED1211AC7833E224FFF218E234FFF280A1
:0B204200B87824E2FB08E2FA08E2F99B
:01204D002270
:0A2C84007834EBF208EAF208E9F2F6
:102C8E00783AEBF208EAF208E9F27834E2FB08E26D
:102C9E00FA08E24A4B600C08E2FB08E2FA08E24A44
:102CAE004B70077B007A007900227837E2FB08E24E
:102CBE00FA08E2F9121154602C7837E2FB0808E2A8
:102CCE00F92401F218E2FA3400F2121154FF7834AA
:102CDE00E2FB0808E2F92401F218E2FA3400F2EFFE
:102CEE0012119A80C57834E2FB08E2FA08E2F9E4A0
:0D2CFE0012119A783AE2FB08E2FA08E2F9B6
:012D0B0022A5
:102F6600783DEBF208EAF208E9F2783DE2FB08E286
:102F7600FA08E2F9121154FF602908E2FB08E2FAA6
:102F860008E2F9121154601BB50718783FE22401D4
:102F9600F218E23400F27842E22401F218E2340038
:102FA600F280C77840E2FB08E2FA08E2F91211540F
:102FB600FF3395E0FE783DE2FB08E2FA08E2F912FB
:0F2FC6001154FD3395E0FCC3ED9FFFEC9EFE22FE
:1030920078431213F47843E2FC08E2FD08E2FE08EA
:1030A200E2FF78181213CEEF12119A7843E2FC086D
:1030B200E2FD08E2FE08E2FF78101213CE90000152
:1030C200EF1211AC7843E2FC08E2FD08E2FE08E2EE
:1030D200FF78081213CE900002EF1211AC78430869
:0B30E2000808E2FF900003EF0211ACB1
:0A217C007847EBF208EAF208E9F2F6
:102186000812140000000000121154FFE4FCFDFECA
:10219600784A1213F4784AE2FC08E2FD08E2FE08E7
:1021A600E2FF78081213E1784A1213F4784AE2FB48
:1021B60008E2F908E2FA08E2CBF8C000C001C00262
:1021C600C0037847E2FB08E2FA08E2F99000011240
:1021D600116DFFD003D002D001D000EB4FFFEAFE15
:1021E600E9FDE8FC784A1213F4784AE2FC08E2FDBD
:1021F60008E2FE08E2FF78081213E1784A1213F4A7
:10220600784AE2FB08E2F908E2FA08E2CBF8C000F5
:10221600C001C002C0037847E2FB08E2FA08E2F90F
:1022260090000212116DFFD003D002D001D000EB56
:102236004FFFEAFEE9FDE8FC784A1213F4784AE219
:10224600FC08E2FD08E2FE08E2FF78081213E178D6
:102256004A1213F4784AE2FB08E2F908E2FA08E2C5
:10226600CBF8C000C001C002C0037847E2FB08E219
:10227600FA08E2F990000312116DFFD003D002D0E4
:1022860001D000EB4FFFEAFEE9FDE8FC784A1213A5
:0E229600F4784AE2FC08E2FD08E2FE08E2FFEE
:0122A4002217
:0C324D00784FEBF208EAF208E9F2AD0756
:10325900E4FFFE7802E2B401020F221239A5E4FD6F
:103269001239A57852E2FD1239A57853E2FD1239D7
:10327900A5784FE2FB08E2FA08E2F908E2FD08E264
:1032890078BACDF208EDF2122FDDAB07AA067D035D
:073299007F071231467F019F
:0132A000220B
:063532007854EDF2AC0735
:10353800E4FFFE7802E2B401020F22AD041239A5BD
:103548007D011239A5E4FD1239A57D011239A5784E
:1035580054E27003FD80027D011239A5AB07AA066B
:093568007D037F071231467F014B
:013571002237
:022AB900AD0767
:102ABB00E4FFFE7802E2B401020F221239A57D0277
:102ACB001239A5E4FD1239A57D041239A5C006C043
:102ADB00077856E2FC08E2FD08E2FE08E2FF7818F0
:102AEB001213CEAD07D007D0061239A5C006C0070A
:102AFB007856E2FC08E2FD08E2FE08E2FF781012CD
:102B0B0013CEAD07D007D0061239A5C006C0077883
:102B1B0056E2FC08E2FD08E2FE08E2FF7808121319
:102B2B00CEAD07D007D0061239A5C006C007785620
:102B3B00E2FC080808E2FFE4AD07D007D006123923
:0E2B4B00A5AB07AA067D037F071231467F0166
:012B59002259
:0C32A100785BEBF208EAF208E9F2AD07F6
:1032AD00E4FFFE7802E2B401020F221239A57D037C
:1032BD001239A5785EE2FD1239A5785FE2FD12396B
:1032CD00A5785BE2FB08E2FA08E2F908E2FD08E204
:1032DD0078BACDF208EDF2122FDDAB07AA067D0309
:0732ED007F071231467F014B
:0132F40022B7
:0635ED007860EDF2AC076E
:1035F300E4FFFE7802E2B401020F22AD041239A502
:103603007D041239A5E4FD1239A57D011239A5788F
:1036130060E2FD1239A5AB07AA067D037F071231CD
:03362300467F01DE
:013626002281
:0222A500AD0783
:1022A7009000007802E2B401037F0122AF82AE837F
:1022B7001239A58E838F827D051239A58E838F8271
:1022C700E4FD1239A58E838F827862E2FC08E2FD75
:1022D70008E2FE74FFFFE47BFFFAF9F8C31213BDAF
:1022E7007017AF82AE837D011239A58E838F8278F6
:1022F70062080808E2FD0223A67862E2FC08E2FD14
:1023070074FFFFFEE47BFF7AFFF9F8C31213BDAF3A
:1023170082AE8370047D0280487D041239A58E83C6
:102327008F82C006C0077862E2FC08E2FD08E2FE81
:1023370008E2FF78181213CEAD07D007D00612397E
:10234700A58E838F82C006C0077862E2FC08E2FD93
:1023570008E2FE08E2FF78101213CEAD07D007D0CF
:10236700061239A58E838F82C006C0077862E2FC09
:1023770008E2FD08E2FE08E2FF78081213CEAD0777
:10238700D007D0061239A58E838F82C006C0077882
:1023970062E2FC080808E2FFE4AD07D007D00612A6
:1023A70039A58E838F82AE83AF82AB07AA067D03E2
:0723B7007F071231467F0190
:0123BE0022FC
:0C3BA7007866ECF208EDF2121154FF22D7
:0C3BB3007868ECF208EDF2121154FF22C9
:0B3BBF00786AECF208EDF212217C2283
:102B5A0078A2EFF2787108E2FA08E2AE02FF78741E
:102B6A0008E2FA08E2C39FFFEA9EFEEF64014E60A4
:102B7A007C7874E2FB08E2FA08E2F9C0038A8389E6
:102B8A0082787108E2FA08E2F9D3D0E0E99582EA9C
:102B9A0095834021787408E2FA08E2AE02FF787160
:102BAA0008E2FA08E29FFFEA9EFEC3EF9417EE647A
:102BBA008094805038787108E2FA08E2C390013AAA
:102BCA009582EA9583400D787174FEF2087401F2D9
:102BDA00087423F278A2E2FF7871E2FB0808E2F9AE
:0E2BEA002401F218E2FA3400F2EF12119A22DE
:10362700786CEBF208EAF208E9F208ECF208EDF23E
:10363700E4FDFCD37870E29D18E29C401C786CE2B4
:10364700FB08E2FA08E2F98D828C8312116DFF12F2
:093657002B5A0DBD00010C80DAB4
:013660002247
:101AB400E47873F208F208F208F2C37872E2941F31
:101AC40018E294005021123694EFD3940040181277
:101AD4003035787108E2FD2401F218E23400F27422
:101AE400032DF8EFF280D3C37872E2940718E294DE
:101AF400005003021C2A7873E2FE08E2FFC37872E6
:101B0400E29FFD18E29EFCC3ED9407EC94005003A1
:101B1400021BE874032FF8E2645560028009740420
:101B24002FF8E264AA60087874E22401021BC978E1
:101B34007308E2FF2405F8E260087874E2240202E4
:101B44001BC9AD0774072DF8E2F8E47976F3E819B8
:101B5400F374082DF8E22407FFE433FE7876E22FCD
:101B6400F218E23EF2E2FE08E2FFD39426EE94007D
:101B740040077874E22403804C7873E2FC08E2FDA9
:101B8400C37872E29DFD18E29CFCD3EF9DEE9C505D
:101B940053787308E22403F9E4FA7BFE7876E224AE
:101BA400FFFD18E234FFFC1233E0AD07787508E25C
:101BB400FC7873E2FE08E2FF2C2402F8E26D600E6A
:101BC4007874E22403F218E23400F2021AFA1224BE
:101BD400C37875E2FE08E2FF7874E22FF218E23E61
:101BE400F2021AFA7873E2FE08E2FFC37872E29F07
:101BF400FD18E29EFCF208EDF2D39400EC94004050
:101C04002574032FF9782774FEF208E4F208E9F248
:101C14007871E2FF08E2782ACFF208EFF27BFE7ACD
:061C2400017903121F0804
:011C2A002297
:1038D400787174FEF2087401F2087423F278747437
:1038E400FEF2087401F2087423F2E47802F27877A5
:0438F40074FFF22249
:053BFD007822E2FF2226
:0D3B9A00E47822F2FBFA7D037F040231463D
:053C02007801E2FF2241
:023B0100AD070E
:103B0300E4FF7801F2FE1239A5EFFB7A007D037F13
:043B13000502314630
:053C07007877E2FF22C6
:0A3BCA00E4FBFA7D037F0E02314692
:093BDE004F4B00727373693A0049
:10396600989B01020202060207020A020B020C02DF
:0A3976000D020E040F041002650399
:033C1500020003A7
:1025B4007800E2FE08E2FFEE3395E0FDFC78561267
:1025C40013F47F01122AB97800E2FE08E2FFEE3329
:1025D40095E0FDFC78561213F47F02122AB97800B4
:1025E400E2FFE4FCFDFE78561213F47F06122AB9CA
:1025F4007800E2FFE4FCFDFE78561213F47F071224
:102604002AB97800E2FE08E2FFEE3395E0FDFC789B
:10261400561213F47F0A122AB97800E2FE08E2FF88
:10262400EE3395E0FDFC78561213F47F0B122AB9B1
:102634007800E2FE08E2FFEE3395E0FDFC785612E6
:1026440013F47F0C122AB97800E2FE08E2FFEE339D
:1026540095E0FDFC78561213F47F0D122AB9780028
:1026640008E2FD7F0E1235ED780008E2FD7F0F12BF
:1026740035ED7800E2FE08E2FFEE3395E0FDFC78EC
:10268400561213F47F10122AB97BFE7A007900786F
:0F26940000E2FF785EE4F208EFF27F650232A108
:10374400123BBF78771213F47877E2FC08E2FD08A5
:10375400E2FE08E2FF78561213F47F06122AB9EF4C
:08376400B401037F01227F0084
:01376C00223A
:10376D00123BBF787B1213F4787BE2FC08E2FD0874
:10377D00E2FE08E2FF78561213F47F07122AB9EF22
:08378D00B401037F01227F005B
:013795002211
:10379600123BBF787F1213F4787FE2FC08E2FD0843
:1037A600E2FE08E2FF78561213F47F0A122AB9EFF6
:0837B600B401037F01227F0032
:0137BE0022E8
:1037BF00123BBF78831213F47883E2FC08E2FD0812
:1037CF00E2FE08E2FF78561213F47F0B122AB9EFCC
:0837DF00B401037F01227F0009
:0137E70022BF
:1037E800123BBF78871213F47887E2FC08E2FD08E1
:1037F800E2FE08E2FF78561213F47F0C122AB9EFA2
:08380800B401037F01227F00DF
:013810002295
:10381100123BBF788B1213F4788BE2FC08E2FD08AF
:10382100E2FE08E2FF78561213F47F0D122AB9EF77
:08383100B401037F01227F00B6
:01383900226C
:10383A00123BBF788F1213F4788FE2FC08E2FD087E
:10384A00E2FE08E2FF78561213F47F10122AB9EF4B
:08385A00B401037F01227F008D
:013862002243
:103A4A00AF05785EECF208EFF27F651232A1EFB4AF
:073A5A0001037F01227F0040
:013A61002242
:0A2789007894EBF208EAF208E9F296
:10279300EF24F9603B24FD604C14605E14607014F8
:1027A300700302282724FD700302283C24AB700326
:1027B300022851245F60030228687894E2FB08E250
:1027C300FA08E2F908E2FC08E2FD12374402286441
:1027D3007894E2FB08E2FA08E2F908E2FC08E2FD79
:1027E30012376D807C7894E2FB08E2FA08E2F9087C
:1027F300E2FC08E2FD12379680677894E2FB08E278
:10280300FA08E2F908E2FC08E2FD1237BF805278C9
:1028130094E2FB08E2FA08E2F908E2FC08E2FD129E
:1028230037E8803D7894E2FB08E2FA08E2F908E22F
:10283300FC08E2FD12381180287894E2FB08E2FAE2
:1028430008E2F908E2FC08E2FD12383A80137894B2
:10285300E2FB08E2FA08E2F908E2FC08E2FD123AB8
:092863004A7899EFF27899E2FF3E
:01286C002249
:033C18007F0C22FC
:1026A300789AEDF2EF600302274E7B17FD7F11123C
:1026B3002D937B18E4FD7F23122D937B19E4FD7F7B
:1026C30036122D937B1AE4FD7F4A122D937B14E47B
:1026D300FD7F5F122D93789AE2703D7B09FD7F1198
:1026E300122D937B0FE4FD7F23122D937B10E4FDCA
:1026F3007F36122D937B0CE4FD7F4A122D937B0DC5
:10270300E4FD7F5F122D937B0EE4FD7F75122D9305
:102713007B14E4FD7F8C8030789AE2640170667BE1
:1027230017FD7F11122D937B18E4FD7F23122D9348
:102733007B19E4FD7F36122D937B1AE4FD7F4A1249
:102743002D937B14E4FD7F5F022D937BFF7A3B790E
:10275300DE78FD740CF2E4FD7F111231F67BFF7A13
:102763003B79E178FD740CF27D027F111231F6782A
:102773009AE2FB7A0078F37402F2087410F27D0493
:062783007F11122A102252
:1035B2007B2270223A2200396D6F6B6A6F62716FE3
:1035C2006663736A326D7100222C2276223A2200DF
:1035D200312E302E3000222C226D223A0030007D16
:0B35E2000000000000000000000000DE
:03398000810000C3
:0739A50078B3EEF208EFF227
:1039AC002440F9E4FA7BFEED12119AE22401F2189C
:0939BC00E23400F2E2FE08E2FF31
:0139C50022DF
:082FD50078C9E2FF7E007BFFDA
:102FDD0078B7EBF208EAF208E9F278B5EEF208EF0D
:012FED00F2F1
:102FEE002440F9E4FA7BFEC002C00108E2F908E2CF
:102FFE00FA08E27827C9F208EAF208E9F278BAE2AA
:10300E00FF08E2782ACFF208EFF2D001D002121FA9
:10301E000878BAE2FE08E2FF78B6E22FF218E23E36
:06302E00F2E2FE08E2FFE1
:013034002279
:1033E00078BCEBF208EAF208E9F208ECF208EDF238
:1033F000E408F2FFFED378C0E29F18E29E402178F5
:10340000BCE2FB0808E2F92401F218E2FA3400F207
:10341000121154FD78C1E22DF20FBF00010E80D5CC
:0434200078C1E2FF8E
:013424002285
:10319F0078C2EBF208EAF208E9F208ECF208EDF275
:1031AF0078C2E2FB08E2FA08E24A4B603978C6E2DD
:1031BF00700218E2603078C508E2FF24FFF218E2CF
:1031CF00FE34FFF2EF4E601E78C2E2FB08E2FA080F
:1031DF00E2F9121154FF123C1578C4E22401F218DF
:0731EF00E23400F280D0225F
:0731460078C7EAF208EBF282
:10314D00783A7455F20874AAF208EDF208EFF278A5
:10315D00C7E2FC08E2FDEC783EF2ED08F278C8E239
:10316D002407F218E23400F27BFE7A01793A08E284
:10317D0024FFFD18E234FFFC1233E0AE0778C7E2FE
:10318D00FC08E2FD2439F8EFF27BFE7A01793A0270
:02319D00319F60
:10388A00E4FF7800E2700CFEFD1239A5780074019D
:10389A00F280077E007D011239A5EFFB7A007D03D5
:0538AA00E4FF023146BD
:1023BF00E478C9F2087C007DFE7BFF7A3579E3FE75
:1023CF007F0A12112E7BFF7A3579B2122E8678BAD8
:1023DF00EEF208EFF27A3579B2122FD578C9EFF213
:1023EF007BFF7A3579B9122E8678BAEEF208EFF2C2
:1023FF007A3579B9122FD578C9EFF27BFF7A357913
:10240F00CA122E8678BAEEF208EFF278C9E2FF7E92
:10241F00007BFF7A3579CA122FDD78C9EFF27BFF87
:10242F007A3579D2122E8678BAEEF208EFF278C9A1
:10243F00E2FF7E007BFF7A3579D2122FDD78C9EF6C
:10244F00F27BFF7A3579D8122E8678BAEEF208EF42
:10245F00F278C9E2FF7E007BFF7A3579D8122FDD43
:10246F0078C9EFF27BFF7A3579DF122E8678BAEED4
:10247F00F208EFF278C9E2FF7E007BFF7A3579DF51
:10248F00122FDD78C9EFF27BFF7A3579E1122E86B4
:10249F0078BAEEF208EFF278C9E2FF7E007BFF7A9E
:1024AF003579E1122FDD78C9EFF2FB7A007D037FDA
:0424BF00010231469F
:0A3BD400E4FBFA7D037F0202314694
:0438F80078D4EFF29F
:1038FC00123C18E4FEEEC39F5013EE25E0249BF817
:0F390C00E2FD78D4E2FCED6C60030E80E8AF06BC
:01391B002289
:0A2EF60078D5EBF208EAF208E9F2E1
:102F000012115408F2FD90000112116D78D9F2905F
:102F1000000212116D78DAF208E4F2900003121147
:102F20006DFF78DBE22FF218E23400F2AF051238C1
:102F3000F8EF25E0249CF8E2FF78D9E26F60037F88
:102F4000002278D8E2FF78D5E2FB08E2FA08E22412
:102F500004F9E43AFA78DAE2FD08E27897CDF2086B
:052F6000EDF2122789CB
:012F65002249
:0724C30078DCEEF208EFF2F5
:1024CA002406F8E2FF12141924F10024F40124F777
:1024DA000224FA03250F04251305251906259B084E
:1024EA00259E0E000025B302388A0223BF023BD480
:1024FA0078DC08E22409F8E27877F2E4FBFA7D0353
:10250A007F030231467822800278017401F2227830
:10251A00DC08E2FD2407F8E2FE74082DF8E2FDEE7D
:10252A0078E3F2ED08F2E478E1F208F278E3E2FE09
:10253A0008E2FFC378E2E29F18E29E506C08E2FFCD
:10254A0078DC08E2FD2FFB240BF8E2F8E479DFF3EC
:10255A00E819F3740C2BF8E2FF78DFE22FF218E2A5
:10256A003400F274092DF97BFE78E1E2FE08E229D3
:10257A00F9E43EFA122EF678E0EFF278DFE224046C
:10258A00FF18E23400FE78E2E22FF218E23EF2800F
:10259A009B0225B478DC08E2FF2409F8E2FE740AFB
:0925AA002FF8E2FDAF061226A392
:0125B3002205
:103694007874E2FB08E2FA08E2F9C0038A838982BB
:1036A4007871E2FB08E2FA08E2F9D0E06B7008E90D
:0F36B40065827003EA658360037F01227F002235
:103035007871E2FB08E2FA08E2F9C0038A83898223
:1030450008E2FB08E2FA08E2F9D0E06B7008E965EE
:10305500827003EA65836034787408E2FA08E2C393
:1030650090013A9582EA9583400D787474FEF208D2
:103075007401F2087423F27874E2FB0808E2F9247B
:0C30850001F218E2FA3400F2121154FFBC
:01309100221C
:100046000000000000000000002F00000000070074
:10005600070000147F147F1400242A7F2A120062EE
:10006600640813230036495522500000050300009A
:1000760000001C224100000041221C000014083E22
:1000860008140008083E0808000000A060000008E8
:10009600080808080000606000000020100804023C
:1000A600003E5149453E0000427F400000426151FA
:1000B6004946002141454B31001814127F10002794
:1000C60045454539003C4A49493000017109050357
:1000D60000364949493600064949291E0000363688
:1000E60000000000563600000008142241000014EB
:1000F60014141414000041221408000201510906C8
:1001060000324959513E007C1211127C007F494948
:100116004936003E41414122007F4141221C007F79
:1001260049494941007F09090901003E4149497A87
:10013600007F0808087F0000417F41000020404101
:100146003F01007F08142241007F40404040007F6D
:10015600020C027F007F0408107F003E4141413EB1
:10016600007F09090906003E4151215E007F0919F9
:1001760029460046494949310001017F0101003FF6
:100186004040403F001F2040201F003F4038403F76
:1001960000631408146300070870080700615149DA
:1001A600454300007F41410000552A552A5500006D
:1001B60041417F00000402010204004040404040EB
:1001C600000001020400002054545478007F484483
:1001D600443800384444442000384444487F0038BA
:1001E6005454541800087E0901020018A4A4A47CE3
:1001F600007F080404780000447D400000408084AD
:100206007D00007F102844000000417F4000007CF4
:1002160004180478007C0804047800384444443800
:1002260000FC242424180018242418FC007C08044C
:10023600040800485454542000043F444020003C25
:100246004040207C001C2040201C003C4030403CAC
:10025600004428102844001CA0A0A07C004464543C
:100266004C44141414141414000000000000000080
:100276000000000000000000000000F80000000080
:10028600000000333000000000100C06100C0600C1
:10029600000000000000000040C07840C078400028
:1002A600043F04043F040400007088FC083000008A
:1002B600001820FF211E0000F008F000E0180000E2
:1002C60000211C031E211E0000F00888700000009B
:1002D6001E2123241927211010160E0000000000ED
:1002E6000000000000000000000000E0180402000A
:1002F600000000071820400000020418E00000007B
:100306000040201807000000404080F08040400078
:100316000202010F01020200000000F000000000CE
:100326000101011F010101000000000000000000A2
:1003360080B0700000000000000000000000000017
:1003460000010101010101010000000000000000A0
:10035600003030000000000000000000806018043B
:10036600006018060100000000E010080810E00018
:10037600000F102020100F00001010F800000000E1
:100386000020203F20200000007008080888700028
:1003960000302824222130000030088888483000A8
:1003A6000018202020110E000000C02010F80000C8
:1003B60000070424243F240000F808888808080061
:1003C6000019212020110E0000E010888818000076
:1003D600000F112020110E0000380808C838080048
:1003E6000000003F000000000070880808887000C8
:1003F600001C222121221C0000E010080810E00049
:100406000000312222110F00000000C0C0000000D1
:1004160000000030300000000000008000000000F6
:1004260000008060000000000000804020100800EE
:1004360000010204081020004040404040404000B7
:100446000404040404040400000810204080000092
:100456000020100804020100007048080808F00097
:100466000000003036010000C030C828E810E00067
:100476000718272423140B000000C038E0000000F2
:10048600203C23020227382008F88888887000005C
:10049600203F202020110E00C03008080808380030
:1004A600071820202010080008F808080810E000A7
:1004B600203F202020100F0008F88888E808100048
:1004C600203F20202320180008F88888E80810001C
:1004D600203F200003000000C03008080838000054
:1004E60007182020221E020008F808000008F80855
:1004F600203F210101213F20000808F808080000DC
:100506000020203F2020000000000808F80808000E
:10051600C08080807F00000008F888C02818080086
:10052600203F20012638200008F8080000000000BF
:10053600203F20202020300008F8F800F8F80800B6
:10054600203F003F003F200008F830C00008F808B0
:10055600203F200007183F00E01008080810E000C0
:100566000F10202020100F0008F808080808F000D7
:10057600203F210101010000E01008080810E000FA
:100586000F18242438504F0008F88888888870008F
:10059600203F2000030C302000708808080838002F
:1005A6000038202121221C00180808F80808180025
:1005B6000000203F2000000008F808000008F808A6
:1005C600001F202020201F000878880000C8380857
:1005D600000007380E010000F80800F80008F800CF
:1005E600033C0700073C0300081868808068180869
:1005F60020302C03032C30200838C800C8380800E7
:100606000000203F2000000010080808C838080035
:100616002038262120201800000000FE02020200D9
:100626000000007F40404000000C30C00000000089
:10063600000000010638C00000020202FE000000B1
:10064600004040407F000000000004020202040057
:100656000000000000000000000000000000000094
:10066600808080808080808000020204000000007C
:100676000000000000000000000080808080000074
:100686000019242222223F2008F800808000000062
:10069600003F112020110E00000000808080000025
:1006A600000E112020201100000000808088F80034
:1006B600000E112020103F20000080808080000066
:1006C600001F222222221300008080F088888818CA
:1006D6000020203F202000000000808080808000D5
:1006E600006B94949493600008F80080808000006A
:1006F600203F210000203F20008098980000000045
:100706000020203F20200000000000809898000074
:1007160000C08080807F000008F800008080800094
:10072600203F24022D302000000808F800000000B9
:100736000020203F20200000808080808080800074
:10074600203F20003F20003F808000808080000006
:10075600203F210000203F20000080808080000094
:10076600001F202020201F008080008080000000C5
:1007760080FFA12020110E000000008080808000F4
:10078600000E112020A0FF808080800080808000E5
:1007960020203F2120000100000080808080800012
:1007A6000033242424241900008080E08080000087
:1007B6000000001F202000008080000000808000D4
:1007C600001F202020103F20808080000080808035
:1007D60000010E30080601008080008000808080C5
:1007E6000F300C030C300F000080800080808000EA
:1007F6000020312E0E312000808080000080808015
:1008060080818E70180601000080808080808000C4
:100816000021302C2221300000000000807C0202E2
:1008260000000000003F404000000000FF00000004
:1008360000000000FF0000000002027C80000000B3
:100846000040403F000000000006010102020404CF
:1008560000000000000000001060028C0000FE9204
:1008660092929292FE00000000000000000000003C
:10087600000000000000000004047E01407E4242A9
:100886007E427E42427E40000000000000000000E2
:1008960000000000000000000000FC242424FC25C9
:1008A6002624FC242424040000000000000000008C
:1008B600000000000000000040308F80844C552569
:1008C6002525554C808080000000000000000000B7
:1008D60000000000000000001060028C00FE9292F2
:1008E60092929292FE0000000000000000000000BC
:1008F600000000000000000004047E014448507F10
:1009060040407F50484440000000000000000000C6
:100916000000000000000000008060F807101010C2
:10092600D0FFD010101000000000000000000000F2
:100936000000000000000000010000FF1008040B8A
:1009460008FF080B0408100000000000000000006B
:1009560000000000000000000000FC04D4545454C1
:10096600D4047F84C53604000000000000000000A7
:100976000000000000000000886601006382829289
:10098600AB8482C10224CF000000000000000000FA
:10099600000000000000000080C060203030101011
:1009A60010103030202060C0000000000000000061
:1009B600000000000000000001000C06221319C907
:1009C600C919132206040000000000000000000000
:1009D6000000000000000000000000000000000011
:1009E6000000000000000000000000000000000001
:1009F600000000000000000000000C06221319C9C8
:100A0600C9191322060400000000000000000000BF
:100A16000000000000000000000E100E100E003A4C
:100A2600003E0A0A003A0000000000000000000034
:100A3600000000000000000000000000201018C8A0
:100A4600C818102000000000000000000000000090
:100A56000000000000000000000E100E100E003A0C
:100A6600003E0A0A003A00000000000000000000F4
:100A7600000000000000000000000F08000E0ACE73
:100A8600C00608060806000000000000000000007E
:100A96000000000000000000001088C433404848F1
:100AA600487F48C848484000000000000000000099
:100AB6000000000000000000020100FF00020A32F0
:100AC6000242827F020202000000000000000000D5
:100AD6000000000000000000F212FE12FE12F200FA
:100AE60084848484FC0000000000000000000000F4
:100AF6000000000000000000FF4A49484949FF0085
:100B06003F404040414070000000000000000000EF
:100B16000000000000000000001715D55557557D50
:100B2600555755D5151700000000000000000000BD
:100B360000000000000000004040407F555555551C
:100B46005555557F40404000000000000000000061
:100B56000000000000000000003E22E2223E0010DD
:100B6600885724548C00000000000000000000009C
:100B76000000000000000000407E403F22220001ED
:100B8600FE424242FE01010000000000000000009B
:100B960000000000000000000000F010101010FF20
:100BA60010101010F000000000000000000000000F
:100BB60000000000000000000000FF424242427FA9
:100BC60042424242FF000000000000000000000018
:100BD600000000000000000080809E9292929EE03D
:100BE600809EB2D2929E80000000000000000000AD
:100BF60000000000000000000808F4949292F10042
:100C060001F2929494F80800000000000000000031
:100C16000000000000000000404042CC0004446494
:100C26005C47F44444440400000000000000000057
:100C360000000000000000000040201F2044444443
:100C460044447F4444444400000000000000000087
:100C56000000000000000000101010FF1050445467
:100C660065C64464544440000000000000000000D3
:100C760000000000000000000444827F0182824AD6
:100C8600562322524E82020000000000000000009F
:100C96000000000000000000404042424242C242C2
:100CA6004242424242404000000000000000000074
:100CB60000000000000000000020702824232020EF
:100CC60020242830E00000000000000000000000A2
:100CD60000000000000000000000FE222222FE00AC
:100CE600FE828292A29E000000000000000000002A
:100CF600000000000000000080601F0242827F00AA
:100D0600FF402F102C438000000000000000000070
:100D16000000000000000000000090884C57A4244A
:100D260054548C8400000000000000000000000005
:100D3600000000000000000001018042221A0702A4
:100D46004282423E01010100000000000000000056
:100D5600000000000000000000000000000000008D
:100D6600000000000000000000000000000000007D
:100D760000000000000000000030300000003030AD
:100D860000000030300000000000000000000000FD
:100D960000000000000000001010D0FF901000FEC0
:100DA600020202FE00000000000000000000000039
:100DB6000000000000000000040300FF0083601F25
:100DC6000000003F404078000000000000000000E6
:100DD60000000000000000000000F010101010FFDE
:100DE60010101010F00000000000000000000000CD
:100DF600000000000000000000000F04040404FFCF
:100E0600040404040F0000000000000000000000BD
:100E1600000000000000000080808888888888FF25
:100E26008888888888808000000000000000000014
:100E3600000000000000000020201008040201FF4E
:100E4600010204081020200000000000000000003D
:100E5600000000000000000020180F08F808080035
:100E660000FC040404FC0000000000000000000078
:100E760000000000000000008141310D030D7101EA
:100E8600003F1010103F00000000000000000000AE
:100E9600000000000000000000083000FF202020B5
:100EA60020FF2020222C200000000000000000006F
:100EB600000000000000000004040201FF80403032
:100EC6000E0106182040800000000000000000000F
:100ED6000000000000000000000484844424548FB5
:100EE6001424448484040000000000000000000074
:100EF6000000000000000000413900003C40404274
:100F06004C40407004093100000000000000000061
:100F16000000000000000000000000000000C0C04B
:100F2600C0C000000000000000000000000000003B
:100F36000000000000000000FCF8E0C0C0800303D1
:100F46000303000000000000000000000000000095
:100F56000000000000000000000000000000C0C00B
:100F6600C0C00000000000000000000000000000FB
:100F76000000000000000000000000000000030365
:100F860003838080C0C0F0FC000000000000000069
:100F96000000000000000000000000000000C0C0CB
:100FA600C0C1010103070F3F000000000000000060
:100FB6000000000000000000000000000000030325
:100FC6000303000000000000000000000000000015
:100FD60000000000000000007F1F07030301C1C0DE
:100FE600C0C000000000000000000000000000007B
:100FF60000000000000000000000000000000303E5
:1010060003030000000000000000000000000000D4
:1010160000000000000000000000000000000000CA
:1010260000000000000000000000000000000000BA
:1010360000000000000000000000000000000000AA
:10104600000000000000000000000000000000009A
:08105600000000000000000092
:093BE700D292D2C7C2C7C29222D9
:073BF000D292C2C7D2C72226
:0B3B4F0012386A123B5AAF0412386AA9
:053B5A00D292C292228C
:07386300AC07123BE77F7880
:10386A00C292E4FEAD07ED5480B48004D2C7800250
:0F387A00C2C7EF25E0FFD292C2920EEEB408E56E
:01388900221C
:0E3B7E00123863123B5AE4FF123B4F023BF039
:0E3B8C00123863123B5A7F40123B4F023BF04F
:1036C300E924B0FFE433FEE4FDFC1236DEE4FDFC46
:0B36D300FFFE1236DE7F10E4FDFCFE5F
:1036DE00AB07AA06ED4C6003023B8CAF03123B7E98
:0136EE0022B9
:04371A0078E5EFF26D
:10371E00E4F91236C3E478E6F278E5E2FF7E007D46
:10372E00017C001236DE08E204F2E2C3948040E926
:05373E0009E9B408DDFB
:013743002263
:1039C600D3EF9400EE940040147D657C18ED1D70D5
:0D39D600011CED4C70F7EF1F70E61E80E342
:0139E30022C1
:103B1700EF1FAA0670011E4A600BE4FDEDC3947BFC
:053B270050EE0D80F7D7
:013B2C002276
:0736610078E9E2FF08E2FD39
:10366800A907ED24B0FFE433FEE4FDFC1236DEE9E1
:1036780054F0C4540F7E004410FFE4FDFC1236DE03
:0C368800E9540FFF7E00E4FDFC0236DE7A
:103A90007F8D1236DAE4FDFC7F14FE1236DEE4FD83
:073AA000FC7FAFFE0236DEE1
:103B3E00E4FDFC7F8D1236D4E4FDFC7FAEFE023632
:013B4E00DE98
:10391C00E4F91236C3E478E7F27D017C00E4FFFEA3
:10392C001236DE78E7E204F2E2C3948040EB09E958
:03393C00B408DFED
:01393F002265
:1038AF00E4F91236C3E478E8F27D017C007F017EF3
:1038BF00001236DE78E8E204F2E2C3948040EA09AF
:0438CF00E9B408DE72
:0138D30022D2
:07294D0078EAEDF218EFF249
:10295400E478EDF2F9EB24E0F2EFD3947F4009E45C
:1029640078E9F208E22402F278ECE26410706B1267
:102974003661E4F978EDE275F010A429F582E435C6
:10298400F0F583E582246EF582E5833402F583E471
:1029940093FF7E007D017C001236DE09E9B408D481
:1029A40078E9E2FF08E204FD123668E4F978EDE222
:1029B40075F010A429F582E435F0F583E5822476D8
:1029C400F582E5833402F583E493FF7E007D017C88
:1029D400001236DE09E9B408D422123661E4F9782B
:1029E400EDE275F006A42446F582E5F03400F583A3
:1029F400E58229F582E43583F583E493FF7E007D47
:0B2A0400017C001236DE09E9B406D4A4
:012A0F0022A4
:0600260078EEEFF2A905DF
:10002C007F017E00AD0119ED600B78EEE2FD7C00E6
:05003C001211CE80EF5F
:01004100229C
:0D2A100078EFEFF208EDF208EAF208EBF2C1
:102A1D00E478F7F278F5F278F3E2FF78F5E2FEC3A9
:102A2D009F4003022AB8C3EF9E14FD7F0A120026B1
:102A3D0078F1E2FC08E2FDCFCDCFCECCCE1211E085
:102A4D007C007D0A1211E078F6EDF208E270307824
:102A5D00F3E214FF78F5E2FEC39F502308E2701AEB
:102A6D0078F4E2FCC3138EF0A4FF78EFE22FFF0899
:102A7D00E2FD78ECECF27B20802678F77401F27899
:102A8D00F4E2FEC313FF08E2FDEF8DF0A4FF78EF33
:102A9D00E22FFF08E2FD78F6E22430FB78ECEEF24F
:0B2AAD0012294D78F5E204F2022A2401
:012AB80022FB
:1031F60078F8EFF208EDF208EBF208EAF208E9F2E5
:10320600E478FEF278FAE2FB08E2FA08E2F978FEE0
:10321600E2F58275830012116DFB602A78F8E2FFF1
:1032260008E2FD78FDE278ECF212294D78F8E22406
:1032360008F2E2D394784007E4F208E22402F27836
:06324600FEE204F280BE6E
:01324C00225F
:0B2D9300787AEBF27878EFF208EDF2AE
:102D9E00E4787BF2123668E4F9787AE275F040A4B2
:102DAE00245EF582E5F03408F583E58229F582E4A8
:102DBE003583F583E493FF7E007D017C001236DEC1
:102DCE0008E204F209E9B410D07878E2FF08E204D0
:102DDE00FD123668E4F9787AE275F040A4247EF5A7
:102DEE0082E5F03408F583E58229F582E43583F532
:102DFE0083E493FF7E007D017C001236DE08E20440
:062E0E00F209E9B410D046
:012E1400229B
:082D0C00787CEFF2787EEBF217
:102D1400E47883F208F2787FE2FF54077008EF1337
:102D24001313541F8009787FE2131313541F04787C
:102D340086F27886EDF2787FE2FF7886E2FDC39F23
:102D4400504C787CE2FF123668E27885F2787EE2B5
:102D5400FF7885E2C39F502F7880E2FB08E2FA08EF
:102D6400E2F90808E2FF2401F218E2FE3400F28FCF
:102D7400828E8312116DFF7E007D017C001236DE8F
:0E2D84007885E204F280C67886E204F280A828
:012D9200221E
:10286D00E4FDFC7FAEFE1236CDE4FDFC7F40FE1292
:10287D0036DEE4FDFC7FB0FE1236DEE4FDFC7F812A
:10288D00FE1236DEE4FDFC7FFFFE1236DEE4FDFCBB
:10289D007FA1FE1236DEE4FDFC7FA6FE1236DEE4DD
:1028AD00FDFC7FA8FE1236DEE4FDFC7F3FFE1236F6
:1028BD00DEE4FDFC7FC8FE1236DEE4FDFC7FD3FEB8
:1028CD001236DEE4FDFCFFFE1236DEE4FDFC7FD5A4
:1028DD00FE1236DEE4FDFC7F80FE1236DEE4FDFCEA
:1028ED007FD8FE1236DEE4FDFC7F05FE1236DEE4F7
:1028FD00FDFC7FD9FE1236DEE4FDFC7FF1FE1236C3
:10290D00DEE4FDFC7FDAFE1236DEE4FDFC7F12FE16
:10291D001236DEE4FDFC7FDBFE1236DEE4FDFC7FCD
:10292D0030FE1236DEE4FDFC7F8DFE1236DEE4FD58
:10293D00FC7F14FE1236DEE4FDFC7FAFFE0236DEB8
:063BF700000000000000C8
:0D3425007887EBF208EAF208E9F208EDF210
:103432007FFFE4FE788AE2FDEEC39D502A7887E2A0
:10344200FB08E2FA08E2F98E8275830012116D6FB1
:10345200FF7D08EF30E70725E06431FF8004EF25A8
:07346200E0FFDDEF0E80CD5D
:013469002240
:093B5F007F0A123B68D2947F3208
:073B6800AE071FEE70FA2208
:053C0C00D295D29422C4
:103AA700D295D2947F0A123B68C2957F14123B6865
:073AB700C2947F14023B687A
:103ABE00C295C2947F0A123B68D2947F0A123B6869
:073ACE00D2957F0A023B685C
:0234AE00AD0768
:1034B000C294E4FCED30E704D2958002C295123B41
:1034C0005FC2947F0A123B68ED25E0FD0CECB40866
:1034D000E3D295D2947F14123B6830950AC2947F50
:1034E00032123B687F0122C2947F32123B687F0018
:0134F00022B9
:02357200AD07A3
:10357400E4FBC294D295FCEB25E0FBD2947F1E12AF
:103584003B68EB3095054401FB800354FEFBC29479
:103594007F0A123B680CECB408DDED24FF9295120F
:0D35A4003B5FC294D2957F01123B68AF03DC
:0135B10022F7
:073A3100788BEEF208EFF2C2
:103A380018E2FF1234AEAB0708E2FF1234AEEB4FC8
:013A4800FF7E
:013A4900225A
:10000E00123C0C123AA77F881234AE7F307E21123A
:05001E003A31023ABE78
:0A204E00788DEBF208EAF208E9F2DF
:10205800789C7C017DFE7BFF7A3B79F77E007F06CA
:1020680012112E123AA77F881234AE7893EFF270CD
:102078000AFF7EE0123A317893EFF27893E2700A21
:10208800123AA77F891234AEEFF27893E2704BFAD6
:10209800E4FF123572749C2AF8EFF20AEAB405F0EC
:1020A8007F01123572749C2AF8EFF2123ABE7BFE59
:1020B8007A01799C7D02123425789EE26F6005785A
:1020C800937402F27BFE7A01799F7D02123425789F
:1020D800A1E26F600578937402F27893E2600302DC
:1020E8002177789CE2FE08E2FDEDFFE4FCFD7894A0
:1020F8001213F4789FE2FE08E2FDEDFFE4FCFD78A0
:10210800981213F4E47FD67E06FDFC7894E2FB086F
:10211800E2F908E2FA08E2CBF812128AE47BFF7AC5
:10212800FFF9F8121315EF243EFFEE34FEF9788D0F
:10213800E2FB08E2FA08E2C98FF012126BE47FE8CA
:102148007E03FDFC7898E2FB08E2F908E2FA08E26F
:10215800CBF812128AE47BFF7AFFF9F8121315788C
:1021680090E2FB08E2FA08E2F9EE8FF012126B78BF
:0321780093E2FFF0
:01217B002241
:03000000022BF8D8
:0C2BF800787FE4F6D8FD758160022C3F68
:10105E00E709F608DFFA8046E709F208DFFA803E74
:10106E0088828C83E709F0A3DFFA8032E309F60861
:10107E00DFFA8078E309F208DFFA807088828C83C9
:10108E00E309F0A3DFFA806489828A83E0A3F6087D
:10109E00DFFA805889828A83E0A3F208DFFA804C57
:1010AE0080D280FA80C680D4806980F2803380102E
:1010BE0080A680EA809A80A880DA80E280CA803397
:1010CE0089828A83ECFAE493A3C8C582C8CCC5830F
:1010DE00CCF0A3C8C582C8CCC583CCDFE9DEE780DF
:1010EE000D89828A83E493A3F608DFF9ECFAA9F05E
:1010FE00EDFB2289828A83ECFAE0A3C8C582C8CCB4
:10110E00C583CCF0A3C8C582C8CCC583CCDFEADECC
:10111E00E880DB89828A83E493A3F208DFF980CC2E
:10112E0088F0EF60010E4E60C388F0ED2402B40427
:10113E000050B9F582EB2402B4040050AF232345CE
:06114E0082239010AE7335
:10115400BB010689828A83E0225002E722BBFE0299
:09116400E32289828A83E49322CC
:10116D00BB010CE58229F582E5833AF583E0225037
:10117D0006E92582F8E622BBFE06E92582F8E22281
:0D118D00E58229F582E5833AF583E493229B
:10119A00BB010689828A83F0225002F722BBFE0134
:0211AA00F3222E
:1011AC00F8BB010DE58229F582E5833AF583E8F079
:1011BC00225006E92582C8F622BBFE05E92582C825
:0211CC00F2220D
:1011CE00EF8DF0A4A8F0CF8CF0A428CE8DF0A42E35
:0211DE00FE22EF
:1011E000BC000BBE0029EF8DF084FFADF022E4CCF3
:1011F000F875F008EF2FFFEE33FEEC33FCEE9DECBC
:10120000984005FCEE9DFE0FD5F0E9E4CEFD22ED01
:10121000F8F5F0EE8420D21CFEADF075F008EF2F4B
:10122000FFED33FD4007985006D5F0F222C398FD3C
:051230000FD5F0EA22D9
:10123500C2D5EC30E709B2D5E4C39DFDE49CFCEED4
:1012450030E715B2D5E4C39FFFE49EFE1211E0C35B
:10125500E49DFDE49CFC80031211E030D507C3E456
:061265009FFFE49EFE2243
:10126B00BB010A89828A83F0E5F0A3F0225006F7CE
:0F127B0009A7F01922BBFE06F3E5F009F31922CB
:10128A00E88FF0A4CC8BF0A42CFCE98EF0A42CFC03
:10129A008AF0EDA42CFCEA8EF0A4CDA8F08BF0A481
:1012AA002DCC3825F0FDE98FF0A42CCD35F0FCEBE0
:1012BA008EF0A4FEA9F0EB8FF0A4CFC5F02ECD39A5
:0F12CA00FEE43CFCEAA42DCE35F0FDE43CFC2212
:1012D90075F008758200EF2FFFEE33FECD33CDCCCC
:1012E90033CCC58233C5829BED9AEC99E58298404F
:1012F9000CF582EE9BFEED9AFDEC99FC0FD5F0D62C
:10130900E4CEFBE4CDFAE4CCF9A88222B800C1B955
:101319000059BA002DEC8BF084CFCECDFCE5F0CB93
:10132900F97818EF2FFFEE33FEED33FDEC33FCEBCC
:1013390033FB10D703994004EB99FB0FD8E5E4F987
:10134900FA227818EF2FFFEE33FEED33FDEC33FC74
:10135900C933C910D7059BE99A4007EC9BFCE99A68
:10136900F90FD8E0E4C9FAE4CCFB2275F010EF2FAD
:10137900FFEE33FEED33FDCC33CCC833C810D707AD
:101389009BEC9AE899400AED9BFDEC9AFCE899F8E8
:0E1399000FD5F0DAE4CDFBE4CCFAE4C8F9227B
:1013A700EB9FF5F0EA9E42F0E99D42F0EC6480C8BD
:0613B70064809845F0225D
:1013BD00EB9FF5F0EA9E42F0E99D42F0E89C45F086
:0113CD0022FD
:1013CE00E8600FECC313FCED13FDEE13FEEF13FFFD
:0313DE00D8F12221
:1013E100E8600FEFC333FFEE33FEED33FDEC33FC6A
:0313F100D8F1220E
:0C13F400ECF208EDF208EEF208EFF22235
:10140000D083D082E493F208740193F208740293BB
:09141000F208740393F2740473F2
:10141900D083D082F8E4937012740193700DA3A362
:1014290093F8740193F5828883E473740293686076
:06143900EFA3A3A380DF76
:102C0400023B2DE493A3F8E493A34003F68001F27E
:102C140008DFF48029E493A3F85407240CC8C333D1
:102C2400C4540F4420C8834004F456800146F6DFA0
:102C3400E4800B0102040810204080903962E47E95
:102C4400019360BCA3FF543F30E509541FFEE49395
:102C5400A360010ECF54C025E060A840B8E493A35C
:102C6400FAE493A3F8E493A3C8C582C8CAC583CA87
:102C7400F0A3C8C582C8CAC583CADFE9DEE780BE3F
:013983000043
:00000001FF
