:1033810057494649004150004F4B004F4C454400BE
:103391003E005541525400535443313546324B3669
:1033A10030533220554152543220546573742050A9
:1033B100726772616D6D65210D0A00534854333097
:1033C1000054696D65720054757961003A002E00F0
:0233D1002500D5
:0F3C4600123C717F0A7E00123B36E4FF023BD531
:101E3500123CDE7E00EE6003021F66EFB407004031
:101E450003021F66901E50F8282873021E65021EA5
:101E55009B021EC8021EFD021F31021F43021F9373
:101E65007B09E4FD7F11122E1F7B0AE4FD7F2312FF
:101E75002E1F7B0BE4FD7F36122E1F7BFF7A3379F5
:101E85008178167410F2E4FD7F4A1232827B14E4E5
:101E9500FD7F6E021F907BFF7A337986781674106A
:101EA500F2E4FD7F111232827B0AE4FD7F36122EA9
:101EB5001F7B0BE4FD7F4A122E1F7B14E4FD7F5F21
:101EC500021F907B09E4FDFF122E1F7B0FE4FD7FAF
:101ED50012122E1F7B10E4FD7F25122E1F7B0CE4B2
:101EE500FD7F39122E1F7B0DE4FD7F4E122E1F7BC9
:101EF5000EE4FD7F64021F907B09E4FDFF122E1F97
:101F05007B0FE4FD7F12122E1F7B10E4FD7F25124F
:101F15002E1F7B11E4FD7F39122E1F7B12E4FD7FFE
:101F25004E122E1F7B13E4FD7F64805F7BFF7A33A7
:101F350079897816740CF2E4FD7F110232827B09EF
:101F4500E4FD7F11122E1F7B15E4FD7F23122E1F4A
:101F55007B16E4FD7F36122E1F7B14E4FD7F4A803D
:101F65002A7B17E4FD7F11122E1F7B18E4FD7F23CA
:101F7500122E1F7B19E4FD7F36122E1F7B1AE4FDFE
:0E1F85007F4A122E1F7B14E4FD7F5F122E1F79
:011F9300222B
:03000B00023A585E
:103A5800C0E0C0D075D000C000C2CD7801E224011A
:103A6800F218E23400F2D2CDC2CDD000D0D0D0E0EE
:013A7800321B
:10181D00E4F593F594F591F592F595F596F5B1F509
:10182D00B2F5B3F5B4F5C9F5CAF5CBF5CCF5E1F5DF
:10183D00E21228F91239F07BFF7A33798C7816741D
:10184D000CF2E4FDFF1232827FFF7E00123B367BED
:10185D00FF7A3379917816740CF2E4FD7F21123200
:10186D00827FFF7E00123B367BFF7A3379917816AB
:10187D00740CF2E4FD7F291232827FFF7E00123B51
:10188D00367BFF7A3379917816740CF2E4FD7F3153
:10189D001232827FFF7E00123B367BFF7A337991C5
:1018AD007816740CF2E4FD7F391232827FFF7E00D0
:1018BD00123B367BFF7A3379897816740CF2E4FD8E
:1018CD007F431232827FFF7E00123B367F02123A37
:1018DD0014D2AF7BFF7A3379937816740CF27D01B5
:1018ED00E4FF1232827FFF7E00123B367BFF7A339C
:1018FD0079917816740CF27D017F211232827FFF6F
:10190D007E00123B367BFF7A3379917816740CF298
:10191D007D017F291232827FFF7E00123B367BFFD5
:10192D007A3379917816740CF27D017F31123282FF
:10193D007FFF7E00123B367BFF7A337991781674E8
:10194D000CF27D017F391232827FFF7E00123B3611
:10195D007BFF7A3379897816740CF27D017F4312FF
:10196D0032827FFF7E00123B367BFF7A33799812ED
:10197D003BBF7FFF7E00123B3612000E7BFF7A339A
:10198D0079BC7816740CF27D02E4FF1232827FFF6F
:10199D007E00123B367BFF7A3379917816740CF208
:1019AD007D027F2D1232827FFF7E00123B367BFF40
:1019BD007A3379917816740CF27D027F351232826A
:1019CD007FFF7E00123B367BFF7A33799178167458
:1019DD000CF27D027F3D1232827FFF7E00123B367C
:1019ED007BFF7A3379917816740CF27D027F451264
:1019FD0032827FFF7E00123B367BFF7A3379897806
:101A0D0016740CF27D027F4F1232827FFF7E001220
:101A1D003B36123AD37BFF7A3379C27816740CF2C7
:101A2D007D03E4FF1232827FFF7E00123B367BFF87
:101A3D007A3379917816740CF27D037F2D123282F0
:101A4D007FFF7E00123B367BFF7A337991781674D7
:101A5D000CF27D037F351232827FFF7E00123B3602
:101A6D007BFF7A3379917816740CF27D037F3D12EA
:101A7D0032827FFF7E00123B367BFF7A337991787D
:101A8D0016740CF27D037F451232827FFF7E0012A9
:101A9D003B367BFF7A3379897816740CF27D037FA0
:101AAD004F1232827FFF7E00123B361239A87BFF28
:101ABD007A3379C87816740CF27D04E4FF12328201
:101ACD007FFF7E00123B367BFF7A33799178167457
:101ADD000CF27D047F211232827FFF7E00123B3695
:101AED007BFF7A3379917816740CF27D047F29127D
:101AFD0032827FFF7E00123B367BFF7A33799178FD
:101B0D0016740CF27D047F311232827FFF7E00123B
:101B1D003B367BFF7A3379917816740CF27D047F16
:101B2D00391232827FFF7E00123B367BFF7A33798A
:101B3D00897816740CF27D047F431232827FE87E21
:071B4D0003123B360239F0E0
:101CCB00780E74FEF2087401F2087405F27BFE7A4A
:101CDB000179031220DA7803E2FF08E27807CFF2EA
:101CEB0008EFF27805E2FF08E27809CFF208EFF28D
:101CFB00E4FB7D02FF122E1F7B017D027F11122E52
:101D0B001F7BFF7A3379CD78167410F27D027F2317
:101D1B001232827807E2FE08E2FF7C007D0A121283
:101D2B0035AA06AB0778157402F2087410F27D021F
:101D3B007F36122A9C7BFF7A3379CF78167410F298
:101D4B007D027F4A1232827807E2FE08E2FF7C00B6
:101D5B007D0A121235AA04AB0578157401F20874CA
:101D6B0010F27D027F53122A9C7B027D04E4FF124A
:101D7B002E1F7B017D047F11122E1F7BFF7A33797F
:101D8B00CD78167410F27D047F231232827809E22B
:101D9B00FE08E2FF7C007D0A121235AA06AB07781B
:101DAB00157402F2087410F27D047F36122A9C7BA4
:101DBB00FF7A3379CF78167410F27D047F4A123292
:101DCB00827809E2FE08E2FF7C007D0A121235AA36
:101DDB0004AB0578157401F2087410F27D047F537F
:101DEB00122A9C7BFF7A3379D178167410F27D041A
:101DFB007F641232827807E2FE08E2FFEE3395E051
:101E0B00FDFC78231213F47F01122B457809E2FEB7
:101E1B0008E2FF7C007D0A121235EE3395E0FDFCE3
:0A1E2B0078231213F47F02022B4506
:103C01001233D3EF14700C123C461239F0121CCB54
:043C1100121E352228
:10358300E47801F208F212181D121B54123C017860
:1035930000E2FE08E2FFC39490EE64809468400B5F
:1035A300D3EF9470EE6480949740DE1239F0121CCE
:1035B300CB121E35122640121E35E47800F208F2B3
:0235C30080C7BF
:0300230002004296
:01004200328B
:0300430002342361
:10342300C0E0C0F0C083C082C0D075D000C000C06F
:1034330001C002C003C004C005C006C007E59A303E
:10344300E008539AFEAF9B122BE6E59A30E1055351
:103453009AFDC201D007D006D005D004D003D00214
:0F346300D001D000D0D0D082D083D0F0D0E032D2
:103BA9001211546010F599D2002000FD740129F911
:063BB900E43AFA80EB2261
:1037C3007802EBF208EAF208E9F27802E2FB08E297
:1037D300FA08E2F9121154FF60101235FE7804E280
:0A37E3002401F218E23400F280E045
:0137ED0022B9
:10143F007805EEF208EFF2C3EE6480948050030259
:10144F00162418E2FE08E2FFEE3395E0FDFC7BA0C8
:10145F007A8679017800D31213A7500302162478E5
:10146F0005E2FE08E2FF940AEE64809480500312B6
:10147F0035FA7805E2FE08E2FFC3940AEE64809421
:10148F0080401FEF9464EE6480948050157C007D43
:10149F00641235F77805E2FE08E2FF7C007D6412E6
:1014AF0035EA7805E2FE08E2FFC39464EE648094A7
:1014BF00804041EF94E8EE6480948350377C007D48
:1014CF00641235F77805E2FE08E2FF7C007D6412B6
:1014DF0035EA7805E2FE08E2FF7C007D64121235E2
:1014EF007E007F0ACFCDCFCECCCE121235ED243079
:1014FF00FF1235FE7805E2FE08E2FFC394E8EE64C2
:10150F008094834061EF9410EE648094A750577CD1
:10151F00037DE81235F77805E2FE08E2FF7C037DD4
:10152F00E81212357F641235EF7805E2FE08E2FF0C
:10153F007C037DE81235DD7805E2FE08E2FF7C03CF
:10154F007DE81212357E007F64CFCDCFCECCCE1288
:10155F0012357E007F0ACFCDCFCECCCE121235ED15
:10156F002430FF1235FE7805E2FE08E2FFC3941027
:10157F00EE648094A75003021624EE3395E0FDFC31
:10158F007BA07A8679017800D31213A75003021635
:10159F00247805E2FE08E2FF7C277D101235F778EC
:1015AF0005E2FE08E2FF7C277D101212357E037FD5
:1015BF00E81235F17805E2FE08E2FF7C277D101274
:1015CF0012357E037FE8CFCDCFCECCCE1212357E33
:1015DF00007F641235F11235C57805E2FE08E2FF8F
:1015EF007C277D101212357E037FE8CFCDCFCECC76
:1015FF00CE1212357E007F64CFCDCFCECCCE12125D
:10160F00357E007F0ACFCDCFCECCCE121235ED2452
:10161F0030FF1235FE7805E2FE08E2FFC3EE64806C
:10162F009480400302181CC3E49FFFE49E18F20845
:10163F00EFF27F2D1235FE7805E2FE08E2FFEE3362
:10164F0095E0FDFC7BA07A8679017800D31213A771
:10165F00500302181C7805E2FE08E2FF940AEE64BC
:10166F0080948050031235FA7805E2FE08E2FFC33A
:10167F00940AEE64809480401FEF9464EE6480942B
:10168F008050157C007D641235F77805E2FE08E284
:10169F00FF7C007D641235EA7805E2FE08E2FFC3A5
:1016AF009464EE648094804041EF94E8EE648094FB
:1016BF008350377C007D641235F77805E2FE08E22F
:1016CF00FF7C007D641235EA7805E2FE08E2FF7CBC
:1016DF00007D641212357E007F0ACFCDCFCECCCEE7
:1016EF00121235ED2430FF1235FE7805E2FE08E2C6
:1016FF00FFC394E8EE648094834063EF9410EE642C
:10170F008094A750597C037DE81235F77805E2FEE7
:10171F0008E2FF7C037DE81212357E007F641235EC
:10172F00F17805E2FE08E2FF7C037DE81235DD78F3
:10173F0005E2FE08E2FF7C037DE81212357E007F92
:10174F0064CFCDCFCECCCE1212357E007F0ACFCD57
:10175F00CFCECCCE121235ED2430FF1235FE7805E8
:10176F00E2FE08E2FFC39410EE648094A7500302D8
:10177F00181CEE3395E0FDFC7BA07A86790178008A
:10178F00D31213A7500302181C7805E2FE08E2FFDC
:10179F007C277D101235F77805E2FE08E2FF7C27E3
:1017AF007D101212357E037FE81235F17805E2FEC7
:1017BF0008E2FF7C277D101212357E037FE8CFCD24
:1017CF00CFCECCCE1212357E007F641235F112359A
:1017DF00C57805E2FE08E2FF7C277D101212357EE8
:1017EF00037FE8CFCDCFCECCCE1212357E007F64F3
:1017FF00CFCDCFCECCCE1212357E007F0ACFCDCF3C
:0E180F00CECCCE121235ED2430FF1235FE2263
:1035C5007805E2FE08E2FF7C277D101212357E03A6
:1035D5007FE8CFCDCFCECCCE1212357E007F64CF23
:1035E500CDCFCECCCE1212357F0A7E00CFCDCFCE39
:0935F500CCCE121235EF2430FF98
:0835FE008F99D2002000FD228C
:080003008F9BD2012001FD22B8
:103BBF001211546010F59BD2012001FD740129F9F7
:063BCF00E43AFA80EB224B
:103AB800AD07AC06538EEF538EF7438E04ECF5D664
:0B3AC800AF058FD753AFFB438E1022D9
:1034FC00EFB4020C438E017FD07EFF123AB8801BD2
:10350C00C28E538EFE438E405389BF5389CF758D27
:10351C00FF758BD0C2AB538FFDD28EE598543F44D0
:10352C0040F598D2ACD29C53A23FC200E47809F289
:04353C007807F222F8
:103A1400EF6402701C7FD07EFF123AB8539A7F4342
:103A2400AF01439A1053BAFEC201E4780AF278084F
:023A3400F2227C
:103B36007D527C03ED1D70011C144C70F7EF1F7055
:063B4600011E144E70EA9E
:013B4C002256
:103B4D007D037C00ED1D70011C144C70F7EF1F7090
:063B5D00011E144E70EA87
:013B6300223F
:103AD300C28CD2A95389FC5389FB538FFE438E803A
:093AE300758CD4758ACDD28C22B9
:103AEC00C28ED2AB5389CF5389BF538FFD438E40C7
:093AFC00758DD4758BCDD28E229C
:1033D300E47803F2D2CCD2C7D292D293D294D295CC
:1033E3007F0AFE123B4D20CC057803E204F220C78E
:1033F300067803E22402F22092067803E22404F220
:103403002093067803E22408F22094067803E2244A
:0F34130010F22095067803E22420F27803E2FFFE
:013422002287
:043A3600823C0000CE
:102EA100EFC39430400CEFD39439500674D02FFF08
:102EB1008022EFC39441400CEFD394465006EF2497
:102EC100C9FF8010EFC39461400AEFD394665004A8
:102ED100EF24A9FFEF540FC454F0FFEDC394304029
:102EE1000CEDD39439500674D02DFD801EEDC394A2
:102EF100414008EDD394465002800CEDC3946140EB
:102F01000AEDD394665004ED24A9FDED540F4FFF53
:012F1100229D
:0A2F1200781BEBF208EAF208E9F27E
:102F1C000812140000000000781BE2FB08E2FA081B
:102F2C00E24A4B7005FFFEFDFC22781E12140000D5
:102F3C00000000781BE2FB0808E2F92401F218E219
:102F4C00FA3400F2121154601F781EE2FC08E2FD04
:102F5C0008E2FE08E22401FFE43EFEE43DFDE43C11
:102F6C00FC781E1213F480CB781EE2FC08E2FD08FC
:052F7C00E2FE08E2FF87
:012F8100222D
:0A317900780BEBF208EAF208E9F225
:103183007811EBF208EAF208E9F2780BE2FB08E2C5
:10319300FA08E24A4B7004FBFAF922780F08E2FFBF
:1031A30024FFF218E2FE34FFF2EF4E60177811E2CB
:1031B300FB0808E2F92401F218E2FA3400F2ED12F6
:0E31C300119A80D7780BE2FB08E2FA08E2F9D5
:0131D10022DB
:0A1F9400782BEBF208EAF208E9F2FC
:101F9E007833EBF208EAF208E9F2782EE2F908E279
:101FAE00FA08E27836C9F208EAF208E9F2782BE28A
:101FBE00FB08E2FA08E24A4B600C08E2FB08E2FA80
:101FCE0008E24A4B70077B007A007900227836E2ED
:101FDE00FB08E2FA08E2F9C0038A838982783308A3
:101FEE00E2FA08E2F9D3D0E0E99582EA9583402E31
:101FFE0008E2FB08E2FA08E2F97831E2FE08E2FFB5
:10200E00E92FF9EA3EFAC0038A8389820808E2FAC8
:10201E0008E2F9D3D0E0E99582EA9583404EE47860
:10202E0039F208F27831E2FE08E2FF7839E2FC0874
:10203E00E2FDC39FEC9E40030220CF7836E2FB0800
:10204E00E2FA08E2F98D828C8312116DFF7833E289
:10205E00FB08E2FA08E2F98D828C83EF1211AC785C
:10206E003AE22401F218E23400F280B87831E2FF4D
:10207E0008E27839CFF208EFF27839E2FE08E2FF93
:10208E00D39400EE940040397836E2FB08E2FA0869
:10209E00E2F9EF24FFFFEE34FFFE8F82F58312117B
:1020AE006DFD7833E2FB08E2FA08E2F98F828E8347
:1020BE00ED1211AC783AE224FFF218E234FFF2800E
:0B20CE00B8782BE2FB08E2FA08E2F908
:0120D90022E4
:0A2D10007814EBF208EAF208E9F289
:102D1A00781AEBF208EAF208E9F27814E2FB08E220
:102D2A00FA08E24A4B600C08E2FB08E2FA08E24AB7
:102D3A004B70077B007A007900227817E2FB08E2E1
:102D4A00FA08E2F9121154602C7817E2FB0808E23B
:102D5A00F92401F218E2FA3400F2121154FF78143D
:102D6A00E2FB0808E2F92401F218E2FA3400F2EF71
:102D7A0012119A80C57814E2FB08E2FA08E2F9E433
:0D2D8A0012119A781AE2FB08E2FA08E2F949
:012D97002219
:102FF200781DEBF208EAF208E9F2781DE2FB08E23A
:10300200FA08E2F9121154FF602908E2FB08E2FA19
:1030120008E2F9121154601BB50718781FE2240167
:10302200F218E23400F27822E22401F218E23400CB
:10303200F280C77820E2FB08E2FA08E2F9121154A2
:10304200FF3395E0FE781DE2FB08E2FA08E2F9128E
:0F3052001154FD3395E0FCC3ED9FFFEC9EFE2271
:10311E0078231213F47823E2FC08E2FD08E2FE089D
:10312E00E2FF78181213CEEF12119A7823E2FC0800
:10313E00E2FD08E2FE08E2FF78101213CE900001C5
:10314E00EF1211AC7823E2FC08E2FD08E2FE08E281
:10315E00FF78081213CE900002EF1211AC782308FC
:0B316E000808E2FF900003EF0211AC24
:0A2208007824EBF208EAF208E9F28C
:102212000812140000000000121154FFE4FCFDFE3D
:1022220078271213F47827E2FC08E2FD08E2FE08A0
:10223200E2FF78081213E178271213F47827E2FB01
:1022420008E2F908E2FA08E2CBF8C000C001C002D5
:10225200C0037824E2FB08E2FA08E2F990000112D6
:10226200116DFFD003D002D001D000EB4FFFEAFE88
:10227200E9FDE8FC78271213F47827E2FC08E2FD76
:1022820008E2FE08E2FF78081213E178271213F43D
:102292007827E2FB08E2F908E2FA08E2CBF8C0008C
:1022A200C001C002C0037824E2FB08E2FA08E2F9A6
:1022B20090000212116DFFD003D002D001D000EBCA
:1022C2004FFFEAFEE9FDE8FC78271213F47827E2D3
:1022D200FC08E2FD08E2FE08E2FF78081213E1784A
:1022E200271213F47827E2FB08E2F908E2FA08E27F
:1022F200CBF8C000C001C002C0037824E2FB08E2B0
:10230200FA08E2F990000312116DFFD003D002D057
:1023120001D000EB4FFFEAFEE9FDE8FC782712133B
:0E232200F47827E2FC08E2FD08E2FE08E2FF84
:01233000228A
:0C32D9007828EBF208EAF208E9F2AD07F1
:1032E500E4FFFE7858E2B401020F22123A79E4FDB8
:1032F500123A79782BE2FD123A79782CE2FD123AEE
:10330500797828E2FB08E2FA08E2F908E2FD08E22A
:103315007829CDF208EDF2123069AB07AA067D03D4
:073325007F071231D27F0186
:01332C00227E
:06360600782DEDF2AC0787
:10360C00E4FFFE7858E2B401020F22AD04123A79BD
:10361C007D01123A79E4FD123A797D01123A7978FA
:10362C002DE27003FD80027D01123A79AB07AA06E8
:09363C007D037F071231D27F01EA
:013645002262
:022B4500AD07DA
:102B4700E4FFFE7858E2B401020F22123A797D02BF
:102B5700123A79E4FD123A797D04123A79C006C037
:102B6700077823E2FC08E2FD08E2FE08E2FF781896
:102B77001213CEAD07D007D006123A79C006C007A8
:102B87007823E2FC08E2FD08E2FE08E2FF78101273
:102B970013CEAD07D007D006123A79C006C0077822
:102BA70023E2FC08E2FD08E2FE08E2FF78081213C0
:102BB700CEAD07D007D006123A79C006C0077823F2
:102BC700E2FC080808E2FFE4AD07D007D006123A96
:0E2BD70079AB07AA067D037F071231D27F017A
:012BE50022CD
:0C332D00781FEBF208EAF208E9F2AD07A5
:10333900E4FFFE7858E2B401020F22123A797D03C4
:10334900123A797822E2FD123A797823E2FD123AAB
:1033590079781FE2FB08E2FA08E2F908E2FD08E2DF
:103369007829CDF208EDF2123069AB07AA067D0380
:073379007F071231D27F0132
:01338000222A
:0636C1007810EDF2AC07E9
:1036C700E4FFFE7858E2B401020F22AD04123A7902
:1036D7007D04123A79E4FD123A797D01123A79783C
:1036E70010E2FD123A79AB07AA067D037F07123174
:0336F700D27F017E
:0136FA0022AD
:02233100AD07F6
:102333009000007858E2B401037F0122AF82AE839C
:10234300123A798E838F827D05123A798E838F823A
:10235300E4FD123A798E838F82782FE2FC08E2FD46
:1023630008E2FE74FFFFE47BFFFAF9F8C31213BD22
:102373007017AF82AE837D01123A798E838F827894
:102383002F080808E2FD022432782FE2FC08E2FD60
:1023930074FFFFFEE47BFF7AFFF9F8C31213BDAFAE
:1023A30082AE8370047D0280487D04123A798E8365
:1023B3008F82C006C007782FE2FC08E2FD08E2FE28
:1023C30008E2FF78181213CEAD07D007D006123AF1
:1023D300798E838F82C006C007782FE2FC08E2FD66
:1023E30008E2FE08E2FF78101213CEAD07D007D043
:1023F30006123A798E838F82C006C007782FE2FCDB
:1024030008E2FD08E2FE08E2FF78081213CEAD07EA
:10241300D007D006123A798E838F82C006C0077820
:102423002FE2FC080808E2FFE4AD07D007D006124C
:102433003A798E838F82AE83AF82AB07AA067D0380
:072443007F071231D27F0177
:01244A00226F
:0C3C7E007833ECF208EDF2121154FF2232
:0C3C8A007835ECF208EDF2121154FF2224
:0B3C96007822ECF208EDF21222082266
:102BE6007800EFF278C708E2FA08E2AE02FF78CA88
:102BF60008E2FA08E2C39FFFEA9EFEEF64014E6018
:102C06007C78CAE2FB08E2FA08E2F9C0038A838903
:102C16008278C708E2FA08E2F9D3D0E0E99582EAB9
:102C26009583402178CA08E2FA08E2AE02FF78C727
:102C360008E2FA08E29FFFEA9EFEC3EF9417EE64ED
:102C4600809480503878C708E2FA08E2C390009072
:102C56009582EA9583400D78C774FEF2087400F2F7
:102C6600087479F27800E2FF78C7E2FB0808E2F917
:0E2C76002401F218E2FA3400F2EF12119A2251
:1036FB007837EBF208EAF208E9F208ECF208EDF29F
:10370B00E4FDFCD3783BE29D18E29C401C7837E249
:10371B00FB08E2FA08E2F98D828C8312116DFF121D
:09372B002BE60DBD00010C80DA53
:013734002272
:101B5400E47803F208F208F208F2C3783DE2941F35
:101B640018E294005021123768EFD3940040181201
:101B740030C1783C08E2FD2401F218E23400F2742A
:101B8400592DF8EFF280D3C3783DE2940718E2941C
:101B9400005003021CCA7803E2FE08E2FFC3783D4A
:101BA400E29FFD18E29EFCC3ED9407EC9400500301
:101BB400021C8874592FF8E2645560028009745A33
:101BC4002FF8E264AA60087804E22401021C697810
:101BD4000308E2FF245BF8E260087804E2240202CE
:101BE4001C69AD07745D2DF8E2F8E47906F3E81991
:101BF400F3745E2DF8E22407FFE433FE7806E22F47
:101C0400F218E23EF2E2FE08E2FFD39426EE9400DC
:101C140040077804E22403804C7803E2FC08E2FDE8
:101C2400C3783DE29DFD18E29CFCD3EF9DEE9C50F1
:101C340053780308E22459F9E4FA7BFE7806E22497
:101C4400FFFD18E234FFFC123472AD07780508E298
:101C5400FC7803E2FE08E2FF2C2458F8E26D600EE3
:101C64007804E22403F218E23400F2021B9A1225EB
:101C74004F7805E2FE08E2FF7804E22FF218E23E14
:101C8400F2021B9A7803E2FE08E2FFC3783DE29F6A
:101C9400FD18E29EFCF208EDF2D39400EC940040AF
:101CA4002574592FF9782E74FEF208E4F208E9F24B
:101CB400783CE2FF08E27831CFF208EFF27BFE7A5B
:061CC400007959121F9483
:011CCA0022F7
:1039A80078C774FEF2087400F2087479F278CA7461
:1039B800FEF2087400F2087479F2E47858F278CDCF
:0439C80074FFF22274
:053CD4007878E2FF22F8
:0D3C7100E47878F2FBFA7D037F040231D283
:053CD9007857E2FF2214
:023BD500AD073A
:103BD700E4FF7857F2FE123A79EFFB7A007D037F14
:043BE700050231D2D0
:053CDE0078CDE2FF2299
:0A3CA100E4FBFA7D037F0E0231D22E
:093CB5004F4B00727373693A0071
:103A3A00983E01020202060207020A020B020C0267
:0A3A4A000D020E040F0410026503C4
:033CE800020003D4
:102640007800E2FE08E2FFEE3395E0FDFC7823120D
:1026500013F47F01122B457800E2FE08E2FFEE330F
:1026600095E0FDFC78231213F47F02122B457800CD
:10267000E2FFE4FCFDFE78231213F47F06122B45E3
:102680007800E2FFE4FCFDFE78231213F47F0712CA
:102690002B457800E2FE08E2FFEE3395E0FDFC7882
:1026A000231213F47F0A122B457800E2FE08E2FFA2
:1026B000EE3395E0FDFC78231213F47F0B122B45CB
:1026C0007800E2FE08E2FFEE3395E0FDFC7823128D
:1026D00013F47F0C122B457800E2FE08E2FFEE3384
:1026E00095E0FDFC78231213F47F0D122B45780042
:1026F00008E2FD7F0E1236C1780008E2FD7F0F125E
:1027000036C17800E2FE08E2FFEE3395E0FDFC788A
:10271000231213F47F10122B457BFE7A0079007888
:0F27200000E2FF7822E4F208EFF27F6502332D2A
:10381800123C96781E1213F4781EE2FC08E2FD08AA
:10382800E2FE08E2FF78231213F47F06122B45EF1D
:08383800B401037F01227F00AF
:013840002265
:10384100123C96781E1213F4781EE2FC08E2FD0881
:10385100E2FE08E2FF78231213F47F07122B45EFF3
:08386100B401037F01227F0086
:01386900223C
:10386A00123C96781E1213F4781EE2FC08E2FD0858
:10387A00E2FE08E2FF78231213F47F0A122B45EFC7
:08388A00B401037F01227F005D
:013892002213
:10389300123C96781E1213F4781EE2FC08E2FD082F
:1038A300E2FE08E2FF78231213F47F0B122B45EF9D
:0838B300B401037F01227F0034
:0138BB0022EA
:1038BC00123C96781E1213F4781EE2FC08E2FD0806
:1038CC00E2FE08E2FF78231213F47F0C122B45EF73
:0838DC00B401037F01227F000B
:0138E40022C1
:1038E500123C96781E1213F4781EE2FC08E2FD08DD
:1038F500E2FE08E2FF78231213F47F0D122B45EF49
:08390500B401037F01227F00E1
:01390D002297
:10390E00123C96781E1213F4781EE2FC08E2FD08B3
:10391E00E2FE08E2FF78231213F47F10122B45EF1C
:08392E00B401037F01227F00B8
:01393600226E
:103B1E00AF057822ECF208EFF27F6512332DEFB489
:073B2E0001037F01227F006B
:013B3500226D
:0A2815007818EBF208EAF208E9F285
:10281F00EF24F9603B24FD604C14605E146070146B
:10282F0070030228B324FD70030228C824AB700381
:10283F000228DD245F60030228F47818E2FB08E227
:10284F00FA08E2F908E2FC08E2FD1238180228F053
:10285F007818E2FB08E2FA08E2F908E2FC08E2FD68
:10286F00123841807C7818E2FB08E2FA08E2F90896
:10287F00E2FC08E2FD12386A80677818E2FB08E292
:10288F00FA08E2F908E2FC08E2FD12389380527868
:10289F0018E2FB08E2FA08E2F908E2FC08E2FD128E
:1028AF0038BC803D7818E2FB08E2FA08E2F908E24A
:1028BF00FC08E2FD1238E580287818E2FB08E2FAFE
:1028CF0008E2F908E2FC08E2FD12390E80137818CD
:1028DF00E2FB08E2FA08E2F908E2FC08E2FD123B2B
:0928EF001E781DEFF2781DE2FFD6
:0128F80022BD
:033CEB007F0C2229
:10272F007810EDF2EF60030227DA7B17FD7F1112AD
:10273F002E1F7B18E4FD7F23122E1F7B19E4FD7FD4
:10274F0036122E1F7B1AE4FD7F4A122E1F7B14E4D4
:10275F00FD7F5F122E1F7810E2703D7B09FD7F1108
:10276F00122E1F7B0FE4FD7F23122E1F7B10E4FD23
:10277F007F36122E1F7B0CE4FD7F4A122E1F7B0D1E
:10278F00E4FD7F5F122E1F7B0EE4FD7F75122E1F5F
:10279F007B14E4FD7F8C80307810E2640170667BDF
:1027AF0017FD7F11122E1F7B18E4FD7F23122E1FA2
:1027BF007B19E4FD7F36122E1F7B1AE4FD7F4A1230
:1027CF002E1F7B14E4FD7F5F022E1F7BFF7A3C7967
:1027DF00B57816740CF2E4FD7F111232827BFF7A0A
:1027EF003C79B87816740CF27D027F111232827820
:1027FF0010E2FB7A0078157402F2087410F27D046F
:06280F007F11122A9C2239
:103686007B2270223A2200396D6F6B6A6F62716F0E
:103696006663736A326D7100222C2276223A22000A
:1036A600312E302E3000222C226D223A0030007D41
:0B36B600000000000000000000000009
:033A540081560098
:073A79007827EEF208EFF2DE
:103A80002496F9E4FA7BFEED12119AE22401F21871
:093A9000E23400F2E2FE08E2FF5C
:013A9900220A
:083061007810E2FF7E007BFF06
:103069007826EBF208EAF208E9F27824EEF208EFA2
:01307900F264
:10307A002496F9E4FA7BFEC002C00108E2F908E2EC
:10308A00FA08E2782EC9F208EAF208E9F27829E2A7
:10309A00FF08E27831CFF208EFF2D001D002121F16
:1030AA00947829E2FE08E2FF7825E22FF218E23E40
:0630BA00F2E2FE08E2FF55
:0130C00022ED
:103472007829EBF208EAF208E9F208ECF208EDF238
:10348200E408F2FFFED3782DE29F18E29E402178F5
:1034920029E2FB0808E2F92401F218E2FA3400F208
:1034A200121154FD782EE22DF20FBF00010E80D5CD
:0434B200782EE2FF8F
:0134B60022F3
:10322B007829EBF208EAF208E9F208ECF208EDF281
:10323B007829E2FB08E2FA08E24A4B6039782DE282
:10324B00700218E26030782C08E2FF24FFF218E2DB
:10325B00FE34FFF2EF4E601E7829E2FB08E2FA081B
:10326B00E2F9121154FF123CE8782BE22401F21818
:07327B00E23400F280D022D2
:0731D2007827EAF208EBF296
:1031D90078907455F20874AAF208EDF208EFF278C3
:1031E90027E2FC08E2FDEC7894F2ED08F27828E297
:1031F9002407F218E23400F27BFE7A00799008E2A3
:1032090024FFFD18E234FFFC123472AE077827E27E
:10321900FC08E2FD248FF8EFF27BFE7A0079900238
:02322900322B46
:10395E00E4FF7856E2700CFEFD123A797856740147
:10396E00F280077E007D01123A79EFFB7A007D032B
:05397E00E4FF0231D25C
:10244B00E47810F2087C017DFE7BFF7A3679B7FECB
:10245B007F0A12112E7BFF7A367986122F1278297A
:10246B00EEF208EFF27A3679861230617810EFF2DD
:10247B007BFF7A36798D122F127829EEF208EFF264
:10248B007A36798D1230617810EFF27BFF7A3679DC
:10249B009E122F127829EEF208EFF27810E2FF7EEF
:1024AB00007BFF7A36799E1230697810EFF27BFF52
:1024BB007A3679A6122F127829EEF208EFF27810FD
:1024CB00E2FF7E007BFF7A3679A61230697810EF37
:1024DB00F27BFF7A3679AC122F127829EEF208EFE5
:1024EB00F27810E2FF7E007BFF7A3679AC1230690E
:1024FB007810EFF27BFF7A3679B3122F127829EE30
:10250B00F208EFF27810E2FF7E007BFF7A3679B3A8
:10251B001230697810EFF27BFF7A3679B5122F12F1
:10252B007829EEF208EFF27810E2FF7E007BFF7A5B
:10253B003679B51230697810EFF2FB7A007D037FA4
:04254B00010231D286
:0A3CAB00E4FBFA7D037F020231D230
:0439CC007817EFF287
:1039D000123CEBE4FEEEC39F5013EE25E0243EF8CC
:0F39E000E2FD7817E2FCED6C60030E80E8AF06A5
:0139EF0022B5
:0A2F82007810EBF208EAF208E9F219
:102F8C0012115408F2FD90000112116D7814F29098
:102F9C00000212116D7815F208E4F2900003121180
:102FAC006DFF7816E22FF218E23400F2AF051239F9
:102FBC00CCEF25E0243FF8E2FF7814E26F60037F4A
:102FCC0000227813E2FF7810E2FB08E2FA08E22410
:102FDC0004F9E43AFA7815E2FD08E2781BCDF20820
:052FEC00EDF2122815B2
:012FF10022BD
:07254F007807EEF208EFF23D
:10255600245CF8E2FF121419257D002580012583ED
:1025660002258603259B04259F0525A50626270803
:10257600262A0E0000263F02395E02244B023CAB9F
:10258600780708E2245FF8E278CDF2E4FBFA7D03EF
:102596007F030231D27878800278577401F222786C
:1025A6000708E2FD245DF8E2FE745E2DF8E2FDEE1A
:1025B600780EF2ED08F2E4780CF208F2780EE2FEFC
:1025C60008E2FFC3780DE29F18E29E506C08E2FF16
:1025D600780708E2FD2FFB2461F8E2F8E4790AF3B4
:1025E600E819F374622BF8E2FF780AE22FF218E298
:1025F6003400F2745F2DF97BFE780CE2FE08E229C6
:10260600F9E43EFA122F82780BEFF2780AE22404FC
:10261600FF18E23400FE780DE22FF218E23EF28057
:102626009B022640780708E2FF245FF8E2FE74600A
:092636002FF8E2FDAF0612272F78
:01263F002278
:1037680078CAE2FB08E2FA08E2F9C0038A83898290
:1037780078C7E2FB08E2FA08E2F9D0E06B7008E9E2
:0F37880065827003EA658360037F01227F002260
:1030C10078C7E2FB08E2FA08E2F9C0038A83898241
:1030D10008E2FB08E2FA08E2F9D0E06B7008E96562
:1030E100827003EA6583603478CA08E2FA08E2C3B1
:1030F1009000909582EA9583400D78CA74FEF2089B
:103101007400F2087479F278CAE2FB0808E2F92443
:0C31110001F218E2FA3400F2121154FF2F
:01311D00228F
:100046000000000000000000002F00000000070074
:10005600070000147F147F1400242A7F2A120062EE
:10006600640813230036495522500000050300009A
:1000760000001C224100000041221C000014083E22
:1000860008140008083E0808000000A060000008E8
:10009600080808080000606000000020100804023C
:1000A600003E5149453E0000427F400000426151FA
:1000B6004946002141454B31001814127F10002794
:1000C60045454539003C4A49493000017109050357
:1000D60000364949493600064949291E0000363688
:1000E60000000000563600000008142241000014EB
:1000F60014141414000041221408000201510906C8
:1001060000324959513E007C1211127C007F494948
:100116004936003E41414122007F4141221C007F79
:1001260049494941007F09090901003E4149497A87
:10013600007F0808087F0000417F41000020404101
:100146003F01007F08142241007F40404040007F6D
:10015600020C027F007F0408107F003E4141413EB1
:10016600007F09090906003E4151215E007F0919F9
:1001760029460046494949310001017F0101003FF6
:100186004040403F001F2040201F003F4038403F76
:1001960000631408146300070870080700615149DA
:1001A600454300007F41410000552A552A5500006D
:1001B60041417F00000402010204004040404040EB
:1001C600000001020400002054545478007F484483
:1001D600443800384444442000384444487F0038BA
:1001E6005454541800087E0901020018A4A4A47CE3
:1001F600007F080404780000447D400000408084AD
:100206007D00007F102844000000417F4000007CF4
:1002160004180478007C0804047800384444443800
:1002260000FC242424180018242418FC007C08044C
:10023600040800485454542000043F444020003C25
:100246004040207C001C2040201C003C4030403CAC
:10025600004428102844001CA0A0A07C004464543C
:100266004C44141414141414000000000000000080
:100276000000000000000000000000F80000000080
:10028600000000333000000000100C06100C0600C1
:10029600000000000000000040C07840C078400028
:1002A600043F04043F040400007088FC083000008A
:1002B600001820FF211E0000F008F000E0180000E2
:1002C60000211C031E211E0000F00888700000009B
:1002D6001E2123241927211010160E0000000000ED
:1002E6000000000000000000000000E0180402000A
:1002F600000000071820400000020418E00000007B
:100306000040201807000000404080F08040400078
:100316000202010F01020200000000F000000000CE
:100326000101011F010101000000000000000000A2
:1003360080B0700000000000000000000000000017
:1003460000010101010101010000000000000000A0
:10035600003030000000000000000000806018043B
:10036600006018060100000000E010080810E00018
:10037600000F102020100F00001010F800000000E1
:100386000020203F20200000007008080888700028
:1003960000302824222130000030088888483000A8
:1003A6000018202020110E000000C02010F80000C8
:1003B60000070424243F240000F808888808080061
:1003C6000019212020110E0000E010888818000076
:1003D600000F112020110E0000380808C838080048
:1003E6000000003F000000000070880808887000C8
:1003F600001C222121221C0000E010080810E00049
:100406000000312222110F00000000C0C0000000D1
:1004160000000030300000000000008000000000F6
:1004260000008060000000000000804020100800EE
:1004360000010204081020004040404040404000B7
:100446000404040404040400000810204080000092
:100456000020100804020100007048080808F00097
:100466000000003036010000C030C828E810E00067
:100476000718272423140B000000C038E0000000F2
:10048600203C23020227382008F88888887000005C
:10049600203F202020110E00C03008080808380030
:1004A600071820202010080008F808080810E000A7
:1004B600203F202020100F0008F88888E808100048
:1004C600203F20202320180008F88888E80810001C
:1004D600203F200003000000C03008080838000054
:1004E60007182020221E020008F808000008F80855
:1004F600203F210101213F20000808F808080000DC
:100506000020203F2020000000000808F80808000E
:10051600C08080807F00000008F888C02818080086
:10052600203F20012638200008F8080000000000BF
:10053600203F20202020300008F8F800F8F80800B6
:10054600203F003F003F200008F830C00008F808B0
:10055600203F200007183F00E01008080810E000C0
:100566000F10202020100F0008F808080808F000D7
:10057600203F210101010000E01008080810E000FA
:100586000F18242438504F0008F88888888870008F
:10059600203F2000030C302000708808080838002F
:1005A6000038202121221C00180808F80808180025
:1005B6000000203F2000000008F808000008F808A6
:1005C600001F202020201F000878880000C8380857
:1005D600000007380E010000F80800F80008F800CF
:1005E600033C0700073C0300081868808068180869
:1005F60020302C03032C30200838C800C8380800E7
:100606000000203F2000000010080808C838080035
:100616002038262120201800000000FE02020200D9
:100626000000007F40404000000C30C00000000089
:10063600000000010638C00000020202FE000000B1
:10064600004040407F000000000004020202040057
:100656000000000000000000000000000000000094
:10066600808080808080808000020204000000007C
:100676000000000000000000000080808080000074
:100686000019242222223F2008F800808000000062
:10069600003F112020110E00000000808080000025
:1006A600000E112020201100000000808088F80034
:1006B600000E112020103F20000080808080000066
:1006C600001F222222221300008080F088888818CA
:1006D6000020203F202000000000808080808000D5
:1006E600006B94949493600008F80080808000006A
:1006F600203F210000203F20008098980000000045
:100706000020203F20200000000000809898000074
:1007160000C08080807F000008F800008080800094
:10072600203F24022D302000000808F800000000B9
:100736000020203F20200000808080808080800074
:10074600203F20003F20003F808000808080000006
:10075600203F210000203F20000080808080000094
:10076600001F202020201F008080008080000000C5
:1007760080FFA12020110E000000008080808000F4
:10078600000E112020A0FF808080800080808000E5
:1007960020203F2120000100000080808080800012
:1007A6000033242424241900008080E08080000087
:1007B6000000001F202000008080000000808000D4
:1007C600001F202020103F20808080000080808035
:1007D60000010E30080601008080008000808080C5
:1007E6000F300C030C300F000080800080808000EA
:1007F6000020312E0E312000808080000080808015
:1008060080818E70180601000080808080808000C4
:100816000021302C2221300000000000807C0202E2
:1008260000000000003F404000000000FF00000004
:1008360000000000FF0000000002027C80000000B3
:100846000040403F000000000006010102020404CF
:1008560000000000000000001060028C0000FE9204
:1008660092929292FE00000000000000000000003C
:10087600000000000000000004047E01407E4242A9
:100886007E427E42427E40000000000000000000E2
:1008960000000000000000000000FC242424FC25C9
:1008A6002624FC242424040000000000000000008C
:1008B600000000000000000040308F80844C552569
:1008C6002525554C808080000000000000000000B7
:1008D60000000000000000001060028C00FE9292F2
:1008E60092929292FE0000000000000000000000BC
:1008F600000000000000000004047E014448507F10
:1009060040407F50484440000000000000000000C6
:100916000000000000000000008060F807101010C2
:10092600D0FFD010101000000000000000000000F2
:100936000000000000000000010000FF1008040B8A
:1009460008FF080B0408100000000000000000006B
:1009560000000000000000000000FC04D4545454C1
:10096600D4047F84C53604000000000000000000A7
:100976000000000000000000886601006382829289
:10098600AB8482C10224CF000000000000000000FA
:10099600000000000000000080C060203030101011
:1009A60010103030202060C0000000000000000061
:1009B600000000000000000001000C06221319C907
:1009C600C919132206040000000000000000000000
:1009D6000000000000000000000000000000000011
:1009E6000000000000000000000000000000000001
:1009F600000000000000000000000C06221319C9C8
:100A0600C9191322060400000000000000000000BF
:100A16000000000000000000000E100E100E003A4C
:100A2600003E0A0A003A0000000000000000000034
:100A3600000000000000000000000000201018C8A0
:100A4600C818102000000000000000000000000090
:100A56000000000000000000000E100E100E003A0C
:100A6600003E0A0A003A00000000000000000000F4
:100A7600000000000000000000000F08000E0ACE73
:100A8600C00608060806000000000000000000007E
:100A96000000000000000000001088C433404848F1
:100AA600487F48C848484000000000000000000099
:100AB6000000000000000000020100FF00020A32F0
:100AC6000242827F020202000000000000000000D5
:100AD6000000000000000000F212FE12FE12F200FA
:100AE60084848484FC0000000000000000000000F4
:100AF6000000000000000000FF4A49484949FF0085
:100B06003F404040414070000000000000000000EF
:100B16000000000000000000001715D55557557D50
:100B2600555755D5151700000000000000000000BD
:100B360000000000000000004040407F555555551C
:100B46005555557F40404000000000000000000061
:100B56000000000000000000003E22E2223E0010DD
:100B6600885724548C00000000000000000000009C
:100B76000000000000000000407E403F22220001ED
:100B8600FE424242FE01010000000000000000009B
:100B960000000000000000000000F010101010FF20
:100BA60010101010F000000000000000000000000F
:100BB60000000000000000000000FF424242427FA9
:100BC60042424242FF000000000000000000000018
:100BD600000000000000000080809E9292929EE03D
:100BE600809EB2D2929E80000000000000000000AD
:100BF60000000000000000000808F4949292F10042
:100C060001F2929494F80800000000000000000031
:100C16000000000000000000404042CC0004446494
:100C26005C47F44444440400000000000000000057
:100C360000000000000000000040201F2044444443
:100C460044447F4444444400000000000000000087
:100C56000000000000000000101010FF1050445467
:100C660065C64464544440000000000000000000D3
:100C760000000000000000000444827F0182824AD6
:100C8600562322524E82020000000000000000009F
:100C96000000000000000000404042424242C242C2
:100CA6004242424242404000000000000000000074
:100CB60000000000000000000020702824232020EF
:100CC60020242830E00000000000000000000000A2
:100CD60000000000000000000000FE222222FE00AC
:100CE600FE828292A29E000000000000000000002A
:100CF600000000000000000080601F0242827F00AA
:100D0600FF402F102C438000000000000000000070
:100D16000000000000000000000090884C57A4244A
:100D260054548C8400000000000000000000000005
:100D3600000000000000000001018042221A0702A4
:100D46004282423E01010100000000000000000056
:100D5600000000000000000000000000000000008D
:100D6600000000000000000000000000000000007D
:100D760000000000000000000030300000003030AD
:100D860000000030300000000000000000000000FD
:100D960000000000000000001010D0FF901000FEC0
:100DA600020202FE00000000000000000000000039
:100DB6000000000000000000040300FF0083601F25
:100DC6000000003F404078000000000000000000E6
:100DD60000000000000000000000F010101010FFDE
:100DE60010101010F00000000000000000000000CD
:100DF600000000000000000000000F04040404FFCF
:100E0600040404040F0000000000000000000000BD
:100E1600000000000000000080808888888888FF25
:100E26008888888888808000000000000000000014
:100E3600000000000000000020201008040201FF4E
:100E4600010204081020200000000000000000003D
:100E5600000000000000000020180F08F808080035
:100E660000FC040404FC0000000000000000000078
:100E760000000000000000008141310D030D7101EA
:100E8600003F1010103F00000000000000000000AE
:100E9600000000000000000000083000FF202020B5
:100EA60020FF2020222C200000000000000000006F
:100EB600000000000000000004040201FF80403032
:100EC6000E0106182040800000000000000000000F
:100ED6000000000000000000000484844424548FB5
:100EE6001424448484040000000000000000000074
:100EF6000000000000000000413900003C40404274
:100F06004C40407004093100000000000000000061
:100F16000000000000000000000000000000C0C04B
:100F2600C0C000000000000000000000000000003B
:100F36000000000000000000FCF8E0C0C0800303D1
:100F46000303000000000000000000000000000095
:100F56000000000000000000000000000000C0C00B
:100F6600C0C00000000000000000000000000000FB
:100F76000000000000000000000000000000030365
:100F860003838080C0C0F0FC000000000000000069
:100F96000000000000000000000000000000C0C0CB
:100FA600C0C1010103070F3F000000000000000060
:100FB6000000000000000000000000000000030325
:100FC6000303000000000000000000000000000015
:100FD60000000000000000007F1F07030301C1C0DE
:100FE600C0C000000000000000000000000000007B
:100FF60000000000000000000000000000000303E5
:1010060003030000000000000000000000000000D4
:1010160000000000000000000000000000000000CA
:1010260000000000000000000000000000000000BA
:1010360000000000000000000000000000000000AA
:10104600000000000000000000000000000000009A
:08105600000000000000000092
:093CBE00D292D2C7C2C7C2922201
:073CC700D292C2C7D2C7224E
:0B3C260012393E123C31AF0412393E4F
:053C3100D292C29222B4
:07393700AC07123CBE7F78D3
:10393E00C292E4FEAD07ED5480B48004D2C780027B
:0F394E00C2C7EF25E0FFD292C2920EEEB408E599
:01395D002247
:0E3C5500123937123C31E4FF123C26023CC704
:0E3C6300123937123C317F40123C26023CC71A
:10379700E924B0FFE433FEE4FDFC1237B2E4FDFC9C
:0B37A700FFFE1237B27F10E4FDFCFEB5
:1037B200AB07AA06ED4C6003023C63AF03123C5513
:0137C20022E4
:0437EE0078CEEFF2B0
:1037F200E4F9123797E478CFF278CEE2FF7E007DCB
:10380200017C001237B208E204F2E2C3948040E97C
:0538120009E9B408DD26
:01381700228E
:103A9A00D3EF9400EE940040147D657C18ED1D7000
:0D3AAA00011CED4C70F7EF1F70E61E80E36D
:013AB70022EC
:103BEB00EF1FAA0670011E4A600BE4FDEDC3947B28
:053BFB0050EE0D80F703
:013C000022A1
:07373500781AE2FF08E2FD33
:10373C00A907ED24B0FFE433FEE4FDFC1237B2E937
:10374C0054F0C4540F7E004410FFE4FDFC1237B259
:0C375C00E9540FFF7E00E4FDFC0237B2D0
:103B64007F8D1237AEE4FDFC7F14FE1237B2E4FD04
:073B7400FC7FAFFE0237B237
:103C1500E4FDFC7F8D1237A8E4FDFC7FAEFE023784
:013C2500B2EC
:1039F000E4F9123797E47803F27D017C00E4FFFEDE
:103A00001237B27803E204F2E2C3948040EB09E992
:033A1000B408DF18
:013A13002290
:10398300E4F9123797E478D0F27D017C007F017E61
:10399300001237B278D0E204F2E2C3948040EA091D
:0439A300E9B408DE9D
:0139A70022FD
:0729D900781BEDF218EFF28C
:1029E000E4781EF2F9EB24E0F2EFD3947F4009E49F
:1029F000781AF208E22402F2781DE26410706B1279
:102A00003735E4F9781EE275F010A429F582E43533
:102A1000F0F583E582246EF582E5833402F583E4E4
:102A200093FF7E007D017C001237B209E9B408D41F
:102A3000781AE2FF08E204FD12373CE4F9781EE25E
:102A400075F010A429F582E435F0F583E58224764B
:102A5000F582E5833402F583E493FF7E007D017CFB
:102A6000001237B209E9B408D422123735E4F978F4
:102A70001EE275F006A42446F582E5F03400F583E5
:102A8000E58229F582E43583F583E493FF7E007DBA
:0B2A9000017C001237B209E9B406D443
:012A9B002218
:06002600781AEFF2A905B3
:10002C007F017E00AD0119ED600B781AE2FD7C00BA
:05003C001211CE80EF5F
:01004100229C
:0D2A9C007811EFF208EDF208EAF208EBF213
:102AA900E47819F27817F27815E2FF7817E2FEC395
:102AB9009F4003022B44C3EF9E14FD7F0A12002698
:102AC9007813E2FC08E2FDCFCDCFCECCCE1211E0D7
:102AD9007C007D0A1211E07818EDF208E270307876
:102AE90015E214FF7817E2FEC39F502308E2701A1B
:102AF9007816E2FCC3138EF0A4FF7811E22FFF08C9
:102B0900E2FD781DECF27B20802678197401F278B9
:102B190016E2FEC313FF08E2FDEF8DF0A4FF781162
:102B2900E22FFF08E2FD7818E22430FB781DEEF26F
:0B2B39001229D97817E204F2022AB03A
:012B4400226E
:103282007811EFF208EDF208EBF208EAF208E9F23F
:10329200E47817F27813E2FB08E2FA08E2F9781709
:1032A200E2F58275830012116DFB602A7811E2FF4C
:1032B20008E2FD7816E2781DF21229D97811E2248B
:1032C20008F2E2D394784007E4F208E22402F278AA
:0632D20017E204F280BEC9
:0132D80022D3
:0B2E1F007813EBF27811EFF208EDF2EF
:102E2A00E47814F212373CE4F97813E275F040A41E
:102E3A00245EF582E5F03408F583E58229F582E41B
:102E4A003583F583E493FF7E007D017C001237B25F
:102E5A0008E204F209E9B410D07811E2FF08E204AA
:102E6A00FD12373CE4F97813E275F040A4247EF5AC
:102E7A0082E5F03408F583E58229F582E43583F5A5
:102E8A0083E493FF7E007D017C001237B208E204DE
:062E9A00F209E9B410D0BA
:012EA000220F
:082D980078D1EFF278D3EBF2E1
:102DA000E478D8F208F278D4E2FF54077008EF1301
:102DB0001313541F800978D4E2131313541F04789B
:102DC000DBF278DBEDF278D4E2FF78DBE2FDC39F43
:102DD000504C78D1E2FF12373CE278DAF278D3E255
:102DE000FF78DAE2C39F502F78D5E2FB08E2FA08B9
:102DF000E2F90808E2FF2401F218E2FE3400F28F43
:102E0000828E8312116DFF7E007D017C001237B22D
:0E2E100078DAE204F280C678DBE204F280A8F1
:012E1E002291
:1028F900E4FDFC7FAEFE1237A1E4FDFC7F40FE1231
:1029090037B2E4FDFC7FB0FE1237B2E4FDFC7F81F3
:10291900FE1237B2E4FDFC7FFFFE1237B2E4FDFC84
:102929007FA1FE1237B2E4FDFC7FA6FE1237B2E4A6
:10293900FDFC7FA8FE1237B2E4FDFC7F3FFE123793
:10294900B2E4FDFC7FC8FE1237B2E4FDFC7FD3FE82
:102959001237B2E4FDFCFFFE1237B2E4FDFC7FD56D
:10296900FE1237B2E4FDFC7F80FE1237B2E4FDFCB3
:102979007FD8FE1237B2E4FDFC7F05FE1237B2E4C0
:10298900FDFC7FD9FE1237B2E4FDFC7FF1FE123760
:10299900B2E4FDFC7FDAFE1237B2E4FDFC7F12FEE1
:1029A9001237B2E4FDFC7FDBFE1237B2E4FDFC7F97
:1029B90030FE1237B2E4FDFC7F8DFE1237B2E4FD22
:1029C900FC7F14FE1237B2E4FDFC7FAFFE0237B282
:063CCE00000000000000F0
:0D34B7007820EBF208EAF208E9F208EDF2E5
:1034C4007FFFE4FE7823E2FDEEC39D502A7820E2DC
:1034D400FB08E2FA08E2F98E8275830012116D6F1F
:1034E400FF7D08EF30E70725E06431FF8004EF2516
:0734F400E0FFDDEF0E80CDCB
:0134FB0022AE
:093C36007F0A123C3FD2947F3258
:073C3F00AE071FEE70FA2230
:053CE300D295D29422ED
:103B7B00D295D2947F0A123C3FC2957F14123C3FE0
:073B8B00C2947F14023C3FCD
:103B9200C295C2947F0A123C3FD2947F0A123C3FE4
:073BA200D2957F0A023C3FAF
:02354000AD07D5
:10354200C294E4FCED30E704D2958002C295123CAD
:1035520036C2947F0A123C3FED25E0FD0CECB40824
:10356200E3D295D2947F14123C3F30950AC2947FE5
:1035720032123C3F7F0122C2947F32123C3F7F00D5
:013582002226
:02364600AD07CE
:10364800E4FBC294D295FCEB25E0FBD2947F1E12DA
:103658003C3FEB3095054401FB800354FEFBC294CC
:103668007F0A123C3F0CECB408DDED24FF92951262
:0D3678003C36C294D2957F01123C3FAF0357
:013685002222
:073B05007820EEF208EFF258
:103B0C0018E2FF123540AB0708E2FF123540EB4FCD
:013B1C00FFA9
:013B1D002285
:10000E00123CE3123B7B7F881235407F307E2112FB
:05001E003B05023B92CE
:0A20DA00780BEBF208EAF208E9F2D5
:1020E400781A7C017DFE7BFF7A3C79CE7E007F06E8
:1020F40012112E123B7B7F881235407811EFF2705B
:102104000AFF7EE0123B057811EFF27811E2700AC3
:10211400123B7B7F89123540EFF27811E2704BFA63
:10212400E4FF123646741A2AF8EFF20AEAB405F00C
:102134007F01123646741A2AF8EFF2123B927BFEA4
:102144007A01791A7D021234B7781CE26F6005783F
:10215400117402F27BFE7A01791D7D021234B77884
:102164001FE26F600578117402F27811E2600302D5
:102174002203781AE2FE08E2FDEDFFE4FCFD78128A
:102184001213F4781DE2FE08E2FDEDFFE4FCFD7895
:10219400161213F4E47FD67E06FDFC7812E2FB08E7
:1021A400E2F908E2FA08E2CBF812128AE47BFF7A39
:1021B400FFF9F8121315EF243EFFEE34FEF9780B05
:1021C400E2FB08E2FA08E2C98FF012126BE47FE83E
:1021D4007E03FDFC7816E2FB08E2F908E2FA08E265
:1021E400CBF812128AE47BFF7AFFF9F81213157800
:1021F4000EE2FB08E2FA08E2F9EE8FF012126B78B5
:0322040011E2FFE5
:0122070022B4
:03000000022C844B
:0C2C8400787FE4F6D8FD758160022CCB4F
:10105E00E709F608DFFA8046E709F208DFFA803E74
:10106E0088828C83E709F0A3DFFA8032E309F60861
:10107E00DFFA8078E309F208DFFA807088828C83C9
:10108E00E309F0A3DFFA806489828A83E0A3F6087D
:10109E00DFFA805889828A83E0A3F208DFFA804C57
:1010AE0080D280FA80C680D4806980F2803380102E
:1010BE0080A680EA809A80A880DA80E280CA803397
:1010CE0089828A83ECFAE493A3C8C582C8CCC5830F
:1010DE00CCF0A3C8C582C8CCC583CCDFE9DEE780DF
:1010EE000D89828A83E493A3F608DFF9ECFAA9F05E
:1010FE00EDFB2289828A83ECFAE0A3C8C582C8CCB4
:10110E00C583CCF0A3C8C582C8CCC583CCDFEADECC
:10111E00E880DB89828A83E493A3F208DFF980CC2E
:10112E0088F0EF60010E4E60C388F0ED2402B40427
:10113E000050B9F582EB2402B4040050AF232345CE
:06114E0082239010AE7335
:10115400BB010689828A83E0225002E722BBFE0299
:09116400E32289828A83E49322CC
:10116D00BB010CE58229F582E5833AF583E0225037
:10117D0006E92582F8E622BBFE06E92582F8E22281
:0D118D00E58229F582E5833AF583E493229B
:10119A00BB010689828A83F0225002F722BBFE0134
:0211AA00F3222E
:1011AC00F8BB010DE58229F582E5833AF583E8F079
:1011BC00225006E92582C8F622BBFE05E92582C825
:0211CC00F2220D
:1011CE00EF8DF0A4A8F0CF8CF0A428CE8DF0A42E35
:0211DE00FE22EF
:1011E000BC000BBE0029EF8DF084FFADF022E4CCF3
:1011F000F875F008EF2FFFEE33FEEC33FCEE9DECBC
:10120000984005FCEE9DFE0FD5F0E9E4CEFD22ED01
:10121000F8F5F0EE8420D21CFEADF075F008EF2F4B
:10122000FFED33FD4007985006D5F0F222C398FD3C
:051230000FD5F0EA22D9
:10123500C2D5EC30E709B2D5E4C39DFDE49CFCEED4
:1012450030E715B2D5E4C39FFFE49EFE1211E0C35B
:10125500E49DFDE49CFC80031211E030D507C3E456
:061265009FFFE49EFE2243
:10126B00BB010A89828A83F0E5F0A3F0225006F7CE
:0F127B0009A7F01922BBFE06F3E5F009F31922CB
:10128A00E88FF0A4CC8BF0A42CFCE98EF0A42CFC03
:10129A008AF0EDA42CFCEA8EF0A4CDA8F08BF0A481
:1012AA002DCC3825F0FDE98FF0A42CCD35F0FCEBE0
:1012BA008EF0A4FEA9F0EB8FF0A4CFC5F02ECD39A5
:0F12CA00FEE43CFCEAA42DCE35F0FDE43CFC2212
:1012D90075F008758200EF2FFFEE33FECD33CDCCCC
:1012E90033CCC58233C5829BED9AEC99E58298404F
:1012F9000CF582EE9BFEED9AFDEC99FC0FD5F0D62C
:10130900E4CEFBE4CDFAE4CCF9A88222B800C1B955
:101319000059BA002DEC8BF084CFCECDFCE5F0CB93
:10132900F97818EF2FFFEE33FEED33FDEC33FCEBCC
:1013390033FB10D703994004EB99FB0FD8E5E4F987
:10134900FA227818EF2FFFEE33FEED33FDEC33FC74
:10135900C933C910D7059BE99A4007EC9BFCE99A68
:10136900F90FD8E0E4C9FAE4CCFB2275F010EF2FAD
:10137900FFEE33FEED33FDCC33CCC833C810D707AD
:101389009BEC9AE899400AED9BFDEC9AFCE899F8E8
:0E1399000FD5F0DAE4CDFBE4CCFAE4C8F9227B
:1013A700EB9FF5F0EA9E42F0E99D42F0EC6480C8BD
:0613B70064809845F0225D
:1013BD00EB9FF5F0EA9E42F0E99D42F0E89C45F086
:0113CD0022FD
:1013CE00E8600FECC313FCED13FDEE13FEEF13FFFD
:0313DE00D8F12221
:1013E100E8600FEFC333FFEE33FEED33FDEC33FC6A
:0313F100D8F1220E
:0C13F400ECF208EDF208EEF208EFF22235
:10140000D083D082E493F208740193F208740293BB
:09141000F208740393F2740473F2
:10141900D083D082F8E4937012740193700DA3A362
:1014290093F8740193F5828883E473740293686076
:06143900EFA3A3A380DF76
:102C9000023583E493A3F8E493A34003F68001F2A2
:102CA00008DFF48029E493A3F85407240CC8C33345
:102CB000C4540F4420C8834004F456800146F6DF14
:102CC000E4800B0102040810204080903A36E47E34
:102CD000019360BCA3FF543F30E509541FFEE49309
:102CE000A360010ECF54C025E060A840B8E493A3D0
:102CF000FAE493A3F8E493A3C8C582C8CAC583CAFB
:102D0000F0A3C8C582C8CAC583CADFE9DEE780BEB2
:013A5700006E
:00000001FF
